{
  "_format": "hh-sol-artifact-1",
  "contractName": "WeNadsUtils",
  "sourceName": "contracts/WeNadsUtils.sol",
  "abi": [
    {
      "inputs": [
        {
          "internalType": "address",
          "name": "_componentContract",
          "type": "address"
        }
      ],
      "stateMutability": "nonpayable",
      "type": "constructor"
    },
    {
      "inputs": [],
      "name": "componentContract",
      "outputs": [
        {
          "internalType": "contract WeNadsComponent",
          "name": "",
          "type": "address"
        }
      ],
      "stateMutability": "view",
      "type": "function"
    },
    {
      "inputs": [
        {
          "components": [
            {
              "internalType": "string",
              "name": "name",
              "type": "string"
            },
            {
              "internalType": "uint256",
              "name": "backgroundId",
              "type": "uint256"
            },
            {
              "internalType": "uint256",
              "name": "headId",
              "type": "uint256"
            },
            {
              "internalType": "uint256",
              "name": "eyesId",
              "type": "uint256"
            },
            {
              "internalType": "uint256",
              "name": "mouthId",
              "type": "uint256"
            },
            {
              "internalType": "uint256",
              "name": "accessoryId",
              "type": "uint256"
            }
          ],
          "internalType": "struct WeNadsUtils.AvatarData",
          "name": "avatar",
          "type": "tuple"
        },
        {
          "internalType": "string",
          "name": "svg",
          "type": "string"
        }
      ],
      "name": "formatJSON",
      "outputs": [
        {
          "internalType": "string",
          "name": "",
          "type": "string"
        }
      ],
      "stateMutability": "pure",
      "type": "function"
    },
    {
      "inputs": [
        {
          "internalType": "string",
          "name": "backgroundUri",
          "type": "string"
        },
        {
          "internalType": "string",
          "name": "headUri",
          "type": "string"
        },
        {
          "internalType": "string",
          "name": "eyesUri",
          "type": "string"
        },
        {
          "internalType": "string",
          "name": "mouthUri",
          "type": "string"
        },
        {
          "internalType": "string",
          "name": "accessoryUri",
          "type": "string"
        }
      ],
      "name": "generateSVG",
      "outputs": [
        {
          "internalType": "string",
          "name": "",
          "type": "string"
        }
      ],
      "stateMutability": "pure",
      "type": "function"
    },
    {
      "inputs": [
        {
          "components": [
            {
              "internalType": "string",
              "name": "name",
              "type": "string"
            },
            {
              "internalType": "uint256",
              "name": "backgroundId",
              "type": "uint256"
            },
            {
              "internalType": "uint256",
              "name": "headId",
              "type": "uint256"
            },
            {
              "internalType": "uint256",
              "name": "eyesId",
              "type": "uint256"
            },
            {
              "internalType": "uint256",
              "name": "mouthId",
              "type": "uint256"
            },
            {
              "internalType": "uint256",
              "name": "accessoryId",
              "type": "uint256"
            }
          ],
          "internalType": "struct WeNadsUtils.AvatarData",
          "name": "avatar",
          "type": "tuple"
        }
      ],
      "name": "generateTokenURI",
      "outputs": [
        {
          "internalType": "string",
          "name": "",
          "type": "string"
        }
      ],
      "stateMutability": "view",
      "type": "function"
    }
  ],
  "bytecode": "0x60a034606f57601f61240a38819003918201601f19168301916001600160401b03831184841017607457808492602094604052833981010312606f57516001600160a01b03811690819003606f5760805260405161237f908161008b82396080518181816101c501526105920152f35b600080fd5b634e487b7160e01b600052604160045260246000fdfe608080604052600436101561001357600080fd5b60003560e01c908163195c61bd1461057f575080638b4cc79614610178578063a44a894a146100bc5763d240d75e1461004b57600080fd5b346100b75760403660031901126100b7576004356001600160401b0381116100b75761007b90369060040161065a565b6024356001600160401b0381116100b7576100b3916100a16100a7923690600401610613565b90611c41565b604051918291826106fb565b0390f35b600080fd5b346100b75760a03660031901126100b7576004356001600160401b0381116100b7576100ec903690600401610613565b6024356001600160401b0381116100b75761010b903690600401610613565b906044356001600160401b0381116100b75761012b903690600401610613565b906064356001600160401b0381116100b75761014b903690600401610613565b608435926001600160401b0384116100b7576100b3946101726100a7953690600401610613565b93610855565b346100b75760203660031901126100b7576004356001600160401b0381116100b7576101a890369060040161065a565b60208082015160405163042ab9b360e01b815260048101919091527f00000000000000000000000000000000000000000000000000000000000000006001600160a01b031692909182602481865afa9182156104005760009261054b575b5060405191630c550f3d60e21b83526004830152600082602481865afa9182156104005760009261052e575b506040810151926040519363042ab9b360e01b85526004850152602084602481845afa938415610400576000946104fa575b5060405193630c550f3d60e21b85526004850152600084602481845afa938415610400576000946104dd575b506060820151936040519463042ab9b360e01b86526004860152602085602481855afa948515610400576000956104a9575b5060405194630c550f3d60e21b86526004860152600085602481855afa9485156104005760009561048c575b5060808301516040519063042ab9b360e01b82526004820152602081602481865afa9081156104005760009161045a575b5060405190630c550f3d60e21b82526004820152600081602481865afa9081156104005760009161043f575b5060a08401516040519063042ab9b360e01b82526004820152602081602481875afa80156104005760009061040c575b60009150602460405180968193630c550f3d60e21b835260048301525afa908115610400576100b3966100a7966100a1956000946103d0575b5060a08080808094015197015193015193015193015193610855565b60a08080809497506103f581943d806000833e6103ed81836105c1565b81019061076c565b9794505050506103b4565b6040513d6000823e3d90fd5b506020813d602011610437575b81610426602093836105c1565b810103126100b7576000905161037b565b3d9150610419565b61045491503d806000833e6103ed81836105c1565b8661034b565b90506020813d602011610484575b81610475602093836105c1565b810103126100b757518661031f565b3d9150610468565b6104a29195503d806000833e6103ed81836105c1565b93856102ee565b9094506020813d6020116104d5575b816104c5602093836105c1565b810103126100b7575193856102c2565b3d91506104b8565b6104f39194503d806000833e6103ed81836105c1565b9284610290565b9093506020813d602011610526575b81610516602093836105c1565b810103126100b757519284610264565b3d9150610509565b6105449192503d806000833e6103ed81836105c1565b9083610232565b9091506020813d602011610577575b81610567602093836105c1565b810103126100b757519083610206565b3d915061055a565b346100b75760003660031901126100b7577f00000000000000000000000000000000000000000000000000000000000000006001600160a01b03168152602090f35b90601f801991011681019081106001600160401b038211176105e257604052565b634e487b7160e01b600052604160045260246000fd5b6001600160401b0381116105e257601f01601f191660200190565b81601f820112156100b75780359061062a826105f8565b9261063860405194856105c1565b828452602083830101116100b757816000926020809301838601378301015290565b91909160c0818403126100b7576040519060c082018281106001600160401b038211176105e25760405281938135916001600160401b0383116100b7576106a760a0939284938301610613565b8452602081013560208501526040810135604085015260608101356060850152608081013560808501520135910152565b60005b8381106106eb5750506000910152565b81810151838201526020016106db565b6040916020825261071b81518092816020860152602086860191016106d8565b601f01601f1916010190565b81601f820112156100b757805161073d816105f8565b9261074b60405194856105c1565b818452602082840101116100b75761076991602080850191016106d8565b90565b6020818303126100b7578051906001600160401b0382116100b75701610100818303126100b7576040519161010083018381106001600160401b038211176105e25760405281516001600160401b0381116100b757816107cd918401610727565b835260208201516001600160a01b03811681036100b757602084015260408201516040840152606082015160608401526080820151608084015260a0820151906001600160401b0382116100b757610826918301610727565b60a083015260c08101519081151582036100b75760e09160c0840152015160058110156100b75760e082015290565b61086190949194612059565b92610f606040519061087390826105c1565b610f3481527f415377414141457343414d414141424f6f333548414141424646424d5645554160208201527f414141414141414141414141414141414141414842516b4b427730524442556960408201527f46796b4141414142415149414141415945523442414145414141456446434d4260608201527f414145424141454141414141414141414141415644686f41414145424141454160808201527f414141414141414141414142414145414141414141414141414141414141417660a08201527f49546f73486a554141414141414141414141414141414141414141414141414160c08201527f414141414141414141414541414141414141414141414141414141414141414260e08201527f41414541414141414141414141414142414145414141416c47693441414141416101008201527f41414141414142385635683656705941414141424141474658614f42577036456101208201527f584b4b44584b4636565a57435735392b574a702f575a783956356c78543474656101408201527f516e4e57505770464d4656765459686952586c6d5348314b4e4673374b5568306101608201527f5559354f4e3241344a305261503234304a454235564a52544f6d557048444a326101808201527f55354671536f492f4c453539574a727175344244414141414f6e5253546c4d416101a08201527f2b7758392f7637392f7637312b54583932782f2b3863586750426e39657452576101c08201527f46453350726f68735276372b75614f596756347543776a4b744b6c6c4b672b646101e08201527f636b48733649372b4a62365465614937766741414364704a52454655654e72736102008201527f7759454141414141674b443971526570416741414141414141414141414141416102208201527f4141414141414141414141414141414141414141414141415a70634f566841456102408201527f6767414d6c354a53755a704b695976746f617967736b4d52464c54762f31726c6102608201527f7467554c305176732f393047356a492f417741414141414141414141414141416102808201527f4141414141414141414142774254316e487344344834566f5033777a314b64536102a08201527f62745669325235582b6234535256486c7a56584a6156726246632b44326650546102c08201527f6333632f564c4e513978344f7266586b496d3574747774386672486733556c756102e08201527f476a473269634b684555587850456d794c496c48722b6b5454617856575876356103008201527f596562654a376c6d747455304649586863354a306f46513655515972554b77696103208201527f67777771494a77355977636f6e56754b372f38654a6b4774656c4858636e575a6103408201527f6e66706435764a622b2f2f507a6b6e57743234724b2f7a5a55696156322b2b306103608201527f657331426f7a32745031724563317a58473958627a56616e6570314e5968774b6103808201527f79782b2f4f66694d2f697443552b383262764b424b49785436583676635465536103a08201527f7068444b4e4730704863636a495a34625072536478336176577362594349786c6103c08201527f6a742b574474482f51574471714c52544355556c3035336d314c4a39483635486103e08201527f6630426d66487667534b566f653978506879504765624732745936576e6444556104008201527f783973586f616c7366314358777054506d736763516d6d655645492b337266536104208201527f43577745695878317350532b5671384355305a79386a4231684f6e3855644e766104408201527f552b62595174624831565134594a2f6562353076623939766e785a38553370356104608201527f324f7a61537049356e75595a63303031616e544b76692f4f4c792f3230464a796104808201527f646e584a6d4648754e4377566a68543557796a31624548752b366e51562b58446104a08201527f2b744b4e56366d575953797850364443396d61692f74345873595856474b61776104c08201527f377366787472525572765a4f4f474f70707a76545849437032587970306143616104e08201527f774d48472b6d5a706a7365394738364d5847386b334a6d7042666b797a5871726105008201527f4843786750482f794d7535783150774176755a4d7678343479724d6f575453556105208201527f756f4932687558776543787378646f5651703972676171474e4d6e69546333696105408201527f534e6f503661432b4e6e665055577735334d677a4939327737626e35573044646105608201527f537958764a377176713769727854534c4c7a635a797a626c6f6c544e333739736105808201527f757a304d3276363468474c493967566e795166506e4b4e717362366b716a386c6105a08201527f4d636337523745627270644670672b37596e35584c627a7436305064344a56336105c08201527f4b455a6f36504357733278444f52623570316975617051787a782b67474c46616105e08201527f5958714842676e38783142713069466d764c59646d796965727244797666416f6106008201527f6951447171584553387865724d624631786469513268614a434b7275307069766106208201527f6e4b49596350694b5a58724b6f7951794c4e642b30686e66516541354c3742556106408201527f573141534a5a53495a674c7a6b335867556652645a65756d52534c4745744d556106608201527f357357506f473064466c68754a434e33356475536a78504d38533643692f62616106808201527f642b5653416744713243316468317463477171784c42425877636f6c42676e4d6106a08201527f6432416d55554e7665664a4f416e455646746539623273446f69304e625848636106c08201527f45674436616d5a4c4262594f494e6f36792b733568344443456b3044347a31346106e08201527f7472514b41785843623762386c733944652f58523041374841784f594b304b6f6107008201527f364f76474a62522f62306f36734d4c366a707867586c78446b4e4132575657426107208201527f6d797366366a6c707a44634266636e513041624c66664549524b68447335692f6107408201527f42745261617976777976303756485a546d4e65676c4c7947547467595a4747466107608201527f554c756477507774464673663244363867334347705159637a484b366d6b6c316107808201527f4863437969435565444a785a525144514b7577426267684471426a71764c694e6107a08201527f6f73632f4365746643484363484f596e3051647862515733516135595030506c6107c08201527f485969537632424442547545415a625a4e44434c757554584d766f55366f72316107e08201527f61386b2f47566a6651394552377537586467786345554c4e7171352f576b4e526108008201527f556a4236344276724763394e59333644496d51377a39747853474659387657496108208201527f72356c4c4c4e6b46646a38365a354d66477a687a68694a4351377373477864586108408201527f684643316a336b42525953474c746745386d7668627a6a644a4f5a586b5157786108608201527f77506f6950724b6f325754427468554e5230585769704773722b57642b314a546108808201527f4d52444764303953546b394c793658464b714a67525373334555475a4f636e326108a08201527f4976536933415152424e2f2f50547970536d6336566b662f32475448337950736108c08201527f4a462b2b3357773271576d65615a56346b7131715971553468782b30386b6a726108e08201527f344957585a414f38302f6b4e7075746b367837346f456836494d5041422b41666109008201527f58704d534671784d354b2f392b4163584c466e62304731455a2b5233674230586109208201527f725066436775574b7a4634326f6776576c625267706559673732556a4c704d536109408201527f5a6833754e754a39344b5a43366c5263734c34333135526541444e46307149636109608201527f2f42304c53492b35633851473256754277544b644b36586e755a665776684b566109808201527f53492f6f54694e744d532b7463684c327a66306b5450744b36566f45724c7a596109a08201527f73336b6856655678596b574c7a4575725a686453695a6a6d4b616f4e344b56756109c08201527f6333303564655552726d6971432f764153415372466f2b465a64492f6c39596c6109e08201527f3833312b42447545386979387737524f464a5857674a4e6c556a4b3951786174610a008201527f4757364a4c78656b486f655a652b424f70364f536e666f695575457a596b584c610a208201527f774d6b6d43565834314c525032586f6652676f764d35564f3035364a6c533443610a408201527f49305853516e714f78686b6155396f455274626d426257476a5048317935524f610a608201527f797344495534336979764233532b734d615966465059776573496f73504b5244610a808201527f5934723045426a5a33724f35666a655653575a4d4661764572386f3944346353610aa08201527f2f776f594b576f5670304a787459665a4b6a417952796a763876446e30727041610ac08201527f7573637338554c7a77307a696239437931683757356b6b645334325761784e5a610ae08201527f354678617a77677652526131584c412b6f575a31386556453534354347554c7a610b008201527f6c2f512b787a5a686c66696e6847646933634d46382b5630413558516534744d610b208201527f346f2b5a58547773455a34462f7070314974305a52525667704b6956564e5579610b408201527f3758506d516f30726d457036616a456d386379466d6e4b69744e424b6a576e65610b608201527f636a38573279474d33345535596556506449397974685142493946447767755a610b808201527f476d2f615439774e496963566a54547750364c30487a4148417a345850367072610ba08201527f5466566c706f6948303362324158437958534b632f687a306e4a574a45763842610bc08201527f36543576733159785553702f324a4d584c56656f3055764179364a4376534c52610be08201527f50356a574450632b6a47444c6f737a75356559702b7a364d344a457442442f79610c008201527f364265597a477178373850495a6454327659445a4e474f59673779647251497a610c208201527f61334f45366b52633834504c706a334d626e7451496f7a6c4759687576364133610c408201527f675a31476f76546256696f4d74772f335867417a45647933714d5656416a4e66610c608201527f71756731634f4f4f52486b6962317248586f6236524c42426d417432794f7645610c808201527f587133594c6f4548487379546d6b356c46626563614a55693845414655517572610ca08201527f4d70766d6d533255675a6c5233694e4b35453337366938617666397a6b586464610cc08201527f674e5a6474764954515a30776479504a7957666475505956653742474968392f610ce08201527f4648535661467035757736654b435a4b7a2f546b6c414b6477764e3269497737610d008201527f2b57733547394630507248653859792f564c466f425458585a50326c6c6e6365610d208201527f3450677a5630476c514e4f35746a58775239325641715645793754504e546241610d408201527f47397331516a32515972634f2b31505735344463386a786854737037524e4e35610d608201527f59682b43523137756b7072717937426232586d6f6c636439474133746c70534a610d808201527f777231337366583547304545697861316b505961303778674e2f486a342f5846610da08201527f354e536d4d37424a475477535156314d3464516c3032775830354e7a36686b52610dc08201527f4c784c6465656771447a36706f4a443748744d2b39576669527950326b535334610de08201527f4c584e777a486d4c50376b46516f522f36505a7a74674b65716534714a654a74610e008201527f63472f42626e6e2f392b6b356f59516e474b6139346c33684d2b71454b2b4576610e208201527f4c644d2b747a58777a6e34425666676162316f6e646a65413332366645595a76610e408201527f746b7a3353436456384d35616a565359583032504859635977712f5452525367610e608201527f3857375151774f384538457a41632f73584a566d475149675769636368423674610e808201527f77326c377a37393379476755564f6a544d6c77717652704373434a34452f7941610ea08201527f514e4f38745948385a6c3664315a64684f3150545762467a454161726f632b74610ec08201527f6475306870534157467343797a595539494e433068693365515643647064422f610ee08201527f67466f495a6d5842657544664f505453574e556845445a73507553565a566f33610f008201527f4266736f6a4e4d5159436c7368546674637a565868462f774461356676723459610f2082015273656230464141414141456c46546b5375516d434360601b610f40820152611b0790612059565b94611b1190612059565b92611b1b90612059565b90611b2590612059565b91611b2f90612059565b92604051958695602087017f3c7376672076696577426f783d22302030203732203732222077696474683d229052604087017f32353622206865696768743d223235362220786d6c6e733d22687474703a2f2f9052743bbbbb973b999737b933979918181817b9bb33911f60591b606088015280519081607589019160200191611bb8926106d8565b860181519182607583019160200191611bd0926106d8565b01607501808251602081940191611be6926106d8565b01808251602081940191611bf9926106d8565b01808251602081940191611c0c926106d8565b01808251602081940191611c1f926106d8565b01651e17b9bb339f60d11b8152036019198101825260060161076990826105c1565b816060925180611f78575b5050604051918260208101917f646174613a696d6167652f7376672b786d6c3b6261736536342c000000000000835280519081603a84019160200191611c91926106d8565b810103603a01601f1981018452611ca890846105c1565b8151916020810151611cb9906121da565b6040820151611cc7906121da565b6060830151611cd5906121da565b916080840151611ce4906121da565b9360a00151611cf2906121da565b94604051978897602089017f646174613a6170706c69636174696f6e2f6a736f6e2c7b226e616d65223a2200905280519081603f8b019160200191611d36926106d8565b7f222c20226465736372697074696f6e223a2257654e6164732041766174617220603f918a019182015265027232a1116160d51b605f820152691134b6b0b3b2911d101160b11b6065820152905191611d95908390606f8401906106d8565b61088b60f21b606f92909101918201526d2261747472696275746573223a5b60901b60718201527f7b2274726169745f74797065223a224261636b67726f756e64222c2276616c75607f8201526332911d1160e11b609f820152815191603f820191611e0991849160a301906020016106d8565b0160300162089f4b60ea1b6034820152603781017f7b2274726169745f74797065223a2248656164222c2276616c7565223a220000905281519182605583019160200191611e56926106d8565b0160340162089f4b60ea1b6021820152602481017f7b2274726169745f74797065223a2245796573222c2276616c7565223a220000905281519182604283019160200191611ea3926106d8565b0160210162089f4b60ea1b6021820152602481017f7b2274726169745f74797065223a224d6f757468222c2276616c7565223a2200905281519182604383019160200191611ef0926106d8565b0160210162089f4b60ea1b6022820152602581017f7b2274726169745f74797065223a224163636573736f7279222c2276616c7565905262111d1160e91b604582015281519182604883019160200191611f49926106d8565b61227d60f01b91016048810191909152615d7d60f01b604a82015203602c8101825261076990604c01826105c1565b9092506003600282010460021b90604051937f4142434445464748494a4b4c4d4e4f505152535455565758595a616263646566601f5261022f197f6768696a6b6c6d6e6f707172737475767778797a303132333435363738392d5f01603f526020850191838601926004600360208601945b0191603f8351818160121c16516000538181600c1c1651600153818160061c16516002531651600353600051815201908382101561202d57600490600390611fea565b50603f909301601f1916604052613d3d60f01b6003909106600204830352506000905282523880611c4c565b6107696026604060bb81519461206f83876105c1565b60188652602086017f6956424f5277304b47676f414141414e53556845556741410000000000000000815261217784519788957f3c666f726569676e4f626a65637420783d22302220793d2230222077696474686020880152751e911898181291103432b4b3b43a1e9118981812911f60511b908701527f3c64697620786d6c6e733d22687474703a2f2f7777772e77332e6f72672f31396056870152691c9c97bc343a36b6111f60b11b60768701527f3c696d672077696474683d223130302522206865696768743d2231303025222060808701527f7372633d22646174613a696d6167652f706e673b6261736536342c000000000060a0870152518092858701906106d8565b830161218c82518093602086850191016106d8565b01016f111030b63a1e912630bcb2b91110179f60811b8152651e17b234bb1f60d11b60108201526f1e17b337b932b4b3b727b13532b1ba1f60811b60168201520360068101845201826105c1565b8060009172184f03e93ff9f4daa797ed6e38ed64bf6a1f0160401b821015612326575b806d04ee2d6d415b85acef8100000000600a92101561230b575b662386f26fc100008110156122f7575b6305f5e1008110156122e6575b6127108110156122d7575b60648110156122c9575b10156122be575b600a60216001840193612262856105f8565b9461227060405196876105c1565b80865261227f601f19916105f8565b013660208701378401015b60001901916f181899199a1a9b1b9c1cb0b131b232b360811b8282061a83530480156122b957600a909161228a565b505090565b600190910190612250565b606460029104930192612249565b6127106004910493019261223f565b6305f5e10060089104930192612234565b662386f26fc1000060109104930192612227565b6d04ee2d6d415b85acef810000000060209104930192612217565b506040915072184f03e93ff9f4daa797ed6e38ed64bf6a1f0160401b81046121fd56fea26469706673582212206e765c0e36d81dc314274936a981a42b416364fd395c2acf96133544920e790f64736f6c634300081c0033",
  "linkReferences": {},
  "deployedLinkReferences": {}
}