{
  "_format": "hh-sol-artifact-1",
  "contractName": "WeNads",
  "sourceName": "contracts/WeNads.sol",
  "abi": [
    {
      "inputs": [
        {
          "internalType": "address",
          "name": "_componentContract",
          "type": "address"
        },
        {
          "internalType": "address",
          "name": "_utilsContract",
          "type": "address"
        }
      ],
      "stateMutability": "nonpayable",
      "type": "constructor"
    },
    {
      "inputs": [],
      "name": "AddressAlreadyOwnsWeNad",
      "type": "error"
    },
    {
      "inputs": [],
      "name": "ERC721EnumerableForbiddenBatchMint",
      "type": "error"
    },
    {
      "inputs": [
        {
          "internalType": "address",
          "name": "sender",
          "type": "address"
        },
        {
          "internalType": "uint256",
          "name": "tokenId",
          "type": "uint256"
        },
        {
          "internalType": "address",
          "name": "owner",
          "type": "address"
        }
      ],
      "name": "ERC721IncorrectOwner",
      "type": "error"
    },
    {
      "inputs": [
        {
          "internalType": "address",
          "name": "operator",
          "type": "address"
        },
        {
          "internalType": "uint256",
          "name": "tokenId",
          "type": "uint256"
        }
      ],
      "name": "ERC721InsufficientApproval",
      "type": "error"
    },
    {
      "inputs": [
        {
          "internalType": "address",
          "name": "approver",
          "type": "address"
        }
      ],
      "name": "ERC721InvalidApprover",
      "type": "error"
    },
    {
      "inputs": [
        {
          "internalType": "address",
          "name": "operator",
          "type": "address"
        }
      ],
      "name": "ERC721InvalidOperator",
      "type": "error"
    },
    {
      "inputs": [
        {
          "internalType": "address",
          "name": "owner",
          "type": "address"
        }
      ],
      "name": "ERC721InvalidOwner",
      "type": "error"
    },
    {
      "inputs": [
        {
          "internalType": "address",
          "name": "receiver",
          "type": "address"
        }
      ],
      "name": "ERC721InvalidReceiver",
      "type": "error"
    },
    {
      "inputs": [
        {
          "internalType": "address",
          "name": "sender",
          "type": "address"
        }
      ],
      "name": "ERC721InvalidSender",
      "type": "error"
    },
    {
      "inputs": [
        {
          "internalType": "uint256",
          "name": "tokenId",
          "type": "uint256"
        }
      ],
      "name": "ERC721NonexistentToken",
      "type": "error"
    },
    {
      "inputs": [
        {
          "internalType": "address",
          "name": "owner",
          "type": "address"
        },
        {
          "internalType": "uint256",
          "name": "index",
          "type": "uint256"
        }
      ],
      "name": "ERC721OutOfBoundsIndex",
      "type": "error"
    },
    {
      "inputs": [
        {
          "internalType": "address",
          "name": "owner",
          "type": "address"
        }
      ],
      "name": "OwnableInvalidOwner",
      "type": "error"
    },
    {
      "inputs": [
        {
          "internalType": "address",
          "name": "account",
          "type": "address"
        }
      ],
      "name": "OwnableUnauthorizedAccount",
      "type": "error"
    },
    {
      "inputs": [],
      "name": "SoulboundTokenCannotBeTransferred",
      "type": "error"
    },
    {
      "anonymous": false,
      "inputs": [
        {
          "indexed": true,
          "internalType": "address",
          "name": "owner",
          "type": "address"
        },
        {
          "indexed": true,
          "internalType": "address",
          "name": "approved",
          "type": "address"
        },
        {
          "indexed": true,
          "internalType": "uint256",
          "name": "tokenId",
          "type": "uint256"
        }
      ],
      "name": "Approval",
      "type": "event"
    },
    {
      "anonymous": false,
      "inputs": [
        {
          "indexed": true,
          "internalType": "address",
          "name": "owner",
          "type": "address"
        },
        {
          "indexed": true,
          "internalType": "address",
          "name": "operator",
          "type": "address"
        },
        {
          "indexed": false,
          "internalType": "bool",
          "name": "approved",
          "type": "bool"
        }
      ],
      "name": "ApprovalForAll",
      "type": "event"
    },
    {
      "anonymous": false,
      "inputs": [
        {
          "indexed": true,
          "internalType": "uint256",
          "name": "avatarId",
          "type": "uint256"
        },
        {
          "indexed": false,
          "internalType": "uint256",
          "name": "backgroundId",
          "type": "uint256"
        },
        {
          "indexed": false,
          "internalType": "uint256",
          "name": "headId",
          "type": "uint256"
        },
        {
          "indexed": false,
          "internalType": "uint256",
          "name": "eyesId",
          "type": "uint256"
        },
        {
          "indexed": false,
          "internalType": "uint256",
          "name": "mouthId",
          "type": "uint256"
        },
        {
          "indexed": false,
          "internalType": "uint256",
          "name": "accessoryId",
          "type": "uint256"
        }
      ],
      "name": "AvatarCreated",
      "type": "event"
    },
    {
      "anonymous": false,
      "inputs": [
        {
          "indexed": true,
          "internalType": "uint256",
          "name": "avatarId",
          "type": "uint256"
        },
        {
          "indexed": false,
          "internalType": "string",
          "name": "newName",
          "type": "string"
        }
      ],
      "name": "AvatarNameUpdated",
      "type": "event"
    },
    {
      "anonymous": false,
      "inputs": [
        {
          "indexed": true,
          "internalType": "address",
          "name": "previousOwner",
          "type": "address"
        },
        {
          "indexed": true,
          "internalType": "address",
          "name": "newOwner",
          "type": "address"
        }
      ],
      "name": "OwnershipTransferred",
      "type": "event"
    },
    {
      "anonymous": false,
      "inputs": [
        {
          "indexed": true,
          "internalType": "address",
          "name": "from",
          "type": "address"
        },
        {
          "indexed": true,
          "internalType": "address",
          "name": "to",
          "type": "address"
        },
        {
          "indexed": true,
          "internalType": "uint256",
          "name": "tokenId",
          "type": "uint256"
        }
      ],
      "name": "Transfer",
      "type": "event"
    },
    {
      "inputs": [
        {
          "internalType": "address",
          "name": "to",
          "type": "address"
        },
        {
          "internalType": "uint256",
          "name": "tokenId",
          "type": "uint256"
        }
      ],
      "name": "approve",
      "outputs": [],
      "stateMutability": "nonpayable",
      "type": "function"
    },
    {
      "inputs": [
        {
          "internalType": "address",
          "name": "owner",
          "type": "address"
        }
      ],
      "name": "balanceOf",
      "outputs": [
        {
          "internalType": "uint256",
          "name": "",
          "type": "uint256"
        }
      ],
      "stateMutability": "view",
      "type": "function"
    },
    {
      "inputs": [
        {
          "internalType": "uint256",
          "name": "tokenId",
          "type": "uint256"
        }
      ],
      "name": "burn",
      "outputs": [],
      "stateMutability": "nonpayable",
      "type": "function"
    },
    {
      "inputs": [
        {
          "internalType": "uint256",
          "name": "_avatarId",
          "type": "uint256"
        },
        {
          "internalType": "uint256",
          "name": "_componentId",
          "type": "uint256"
        },
        {
          "internalType": "enum WeNadsComponent.ComponentType",
          "name": "_componentType",
          "type": "uint8"
        }
      ],
      "name": "changeComponent",
      "outputs": [],
      "stateMutability": "nonpayable",
      "type": "function"
    },
    {
      "inputs": [
        {
          "internalType": "uint256",
          "name": "_avatarId",
          "type": "uint256"
        },
        {
          "internalType": "uint256",
          "name": "_backgroundId",
          "type": "uint256"
        },
        {
          "internalType": "uint256",
          "name": "_headId",
          "type": "uint256"
        },
        {
          "internalType": "uint256",
          "name": "_eyesId",
          "type": "uint256"
        },
        {
          "internalType": "uint256",
          "name": "_mouthId",
          "type": "uint256"
        },
        {
          "internalType": "uint256",
          "name": "_accessoryId",
          "type": "uint256"
        }
      ],
      "name": "changeComponents",
      "outputs": [],
      "stateMutability": "nonpayable",
      "type": "function"
    },
    {
      "inputs": [],
      "name": "componentContract",
      "outputs": [
        {
          "internalType": "contract WeNadsComponent",
          "name": "",
          "type": "address"
        }
      ],
      "stateMutability": "view",
      "type": "function"
    },
    {
      "inputs": [
        {
          "internalType": "uint256",
          "name": "_backgroundTemplateId",
          "type": "uint256"
        },
        {
          "internalType": "uint256",
          "name": "_headTemplateId",
          "type": "uint256"
        },
        {
          "internalType": "uint256",
          "name": "_eyesTemplateId",
          "type": "uint256"
        },
        {
          "internalType": "uint256",
          "name": "_mouthTemplateId",
          "type": "uint256"
        },
        {
          "internalType": "uint256",
          "name": "_accessoryTemplateId",
          "type": "uint256"
        },
        {
          "internalType": "string",
          "name": "_name",
          "type": "string"
        }
      ],
      "name": "createAvatar",
      "outputs": [],
      "stateMutability": "payable",
      "type": "function"
    },
    {
      "inputs": [
        {
          "internalType": "uint256",
          "name": "tokenId",
          "type": "uint256"
        }
      ],
      "name": "getApproved",
      "outputs": [
        {
          "internalType": "address",
          "name": "",
          "type": "address"
        }
      ],
      "stateMutability": "view",
      "type": "function"
    },
    {
      "inputs": [
        {
          "internalType": "uint256",
          "name": "_tokenId",
          "type": "uint256"
        }
      ],
      "name": "getAvatar",
      "outputs": [
        {
          "components": [
            {
              "internalType": "uint256",
              "name": "backgroundId",
              "type": "uint256"
            },
            {
              "internalType": "uint256",
              "name": "headId",
              "type": "uint256"
            },
            {
              "internalType": "uint256",
              "name": "eyesId",
              "type": "uint256"
            },
            {
              "internalType": "uint256",
              "name": "mouthId",
              "type": "uint256"
            },
            {
              "internalType": "uint256",
              "name": "accessoryId",
              "type": "uint256"
            },
            {
              "internalType": "string",
              "name": "name",
              "type": "string"
            }
          ],
          "internalType": "struct WeNads.Avatar",
          "name": "",
          "type": "tuple"
        }
      ],
      "stateMutability": "view",
      "type": "function"
    },
    {
      "inputs": [
        {
          "internalType": "address",
          "name": "owner",
          "type": "address"
        },
        {
          "internalType": "address",
          "name": "operator",
          "type": "address"
        }
      ],
      "name": "isApprovedForAll",
      "outputs": [
        {
          "internalType": "bool",
          "name": "",
          "type": "bool"
        }
      ],
      "stateMutability": "view",
      "type": "function"
    },
    {
      "inputs": [],
      "name": "name",
      "outputs": [
        {
          "internalType": "string",
          "name": "",
          "type": "string"
        }
      ],
      "stateMutability": "view",
      "type": "function"
    },
    {
      "inputs": [
        {
          "internalType": "address",
          "name": "",
          "type": "address"
        },
        {
          "internalType": "address",
          "name": "",
          "type": "address"
        },
        {
          "internalType": "uint256[]",
          "name": "",
          "type": "uint256[]"
        },
        {
          "internalType": "uint256[]",
          "name": "",
          "type": "uint256[]"
        },
        {
          "internalType": "bytes",
          "name": "",
          "type": "bytes"
        }
      ],
      "name": "onERC1155BatchReceived",
      "outputs": [
        {
          "internalType": "bytes4",
          "name": "",
          "type": "bytes4"
        }
      ],
      "stateMutability": "nonpayable",
      "type": "function"
    },
    {
      "inputs": [
        {
          "internalType": "address",
          "name": "",
          "type": "address"
        },
        {
          "internalType": "address",
          "name": "",
          "type": "address"
        },
        {
          "internalType": "uint256",
          "name": "",
          "type": "uint256"
        },
        {
          "internalType": "uint256",
          "name": "",
          "type": "uint256"
        },
        {
          "internalType": "bytes",
          "name": "",
          "type": "bytes"
        }
      ],
      "name": "onERC1155Received",
      "outputs": [
        {
          "internalType": "bytes4",
          "name": "",
          "type": "bytes4"
        }
      ],
      "stateMutability": "nonpayable",
      "type": "function"
    },
    {
      "inputs": [],
      "name": "owner",
      "outputs": [
        {
          "internalType": "address",
          "name": "",
          "type": "address"
        }
      ],
      "stateMutability": "view",
      "type": "function"
    },
    {
      "inputs": [
        {
          "internalType": "uint256",
          "name": "tokenId",
          "type": "uint256"
        }
      ],
      "name": "ownerOf",
      "outputs": [
        {
          "internalType": "address",
          "name": "",
          "type": "address"
        }
      ],
      "stateMutability": "view",
      "type": "function"
    },
    {
      "inputs": [],
      "name": "renounceOwnership",
      "outputs": [],
      "stateMutability": "nonpayable",
      "type": "function"
    },
    {
      "inputs": [
        {
          "internalType": "address",
          "name": "from",
          "type": "address"
        },
        {
          "internalType": "address",
          "name": "to",
          "type": "address"
        },
        {
          "internalType": "uint256",
          "name": "tokenId",
          "type": "uint256"
        }
      ],
      "name": "safeTransferFrom",
      "outputs": [],
      "stateMutability": "nonpayable",
      "type": "function"
    },
    {
      "inputs": [
        {
          "internalType": "address",
          "name": "from",
          "type": "address"
        },
        {
          "internalType": "address",
          "name": "to",
          "type": "address"
        },
        {
          "internalType": "uint256",
          "name": "tokenId",
          "type": "uint256"
        },
        {
          "internalType": "bytes",
          "name": "data",
          "type": "bytes"
        }
      ],
      "name": "safeTransferFrom",
      "outputs": [],
      "stateMutability": "nonpayable",
      "type": "function"
    },
    {
      "inputs": [
        {
          "internalType": "address",
          "name": "operator",
          "type": "address"
        },
        {
          "internalType": "bool",
          "name": "approved",
          "type": "bool"
        }
      ],
      "name": "setApprovalForAll",
      "outputs": [],
      "stateMutability": "nonpayable",
      "type": "function"
    },
    {
      "inputs": [
        {
          "internalType": "bytes4",
          "name": "interfaceId",
          "type": "bytes4"
        }
      ],
      "name": "supportsInterface",
      "outputs": [
        {
          "internalType": "bool",
          "name": "",
          "type": "bool"
        }
      ],
      "stateMutability": "view",
      "type": "function"
    },
    {
      "inputs": [],
      "name": "symbol",
      "outputs": [
        {
          "internalType": "string",
          "name": "",
          "type": "string"
        }
      ],
      "stateMutability": "view",
      "type": "function"
    },
    {
      "inputs": [
        {
          "internalType": "uint256",
          "name": "index",
          "type": "uint256"
        }
      ],
      "name": "tokenByIndex",
      "outputs": [
        {
          "internalType": "uint256",
          "name": "",
          "type": "uint256"
        }
      ],
      "stateMutability": "view",
      "type": "function"
    },
    {
      "inputs": [
        {
          "internalType": "address",
          "name": "owner",
          "type": "address"
        },
        {
          "internalType": "uint256",
          "name": "index",
          "type": "uint256"
        }
      ],
      "name": "tokenOfOwnerByIndex",
      "outputs": [
        {
          "internalType": "uint256",
          "name": "",
          "type": "uint256"
        }
      ],
      "stateMutability": "view",
      "type": "function"
    },
    {
      "inputs": [
        {
          "internalType": "uint256",
          "name": "_tokenId",
          "type": "uint256"
        }
      ],
      "name": "tokenURI",
      "outputs": [
        {
          "internalType": "string",
          "name": "",
          "type": "string"
        }
      ],
      "stateMutability": "view",
      "type": "function"
    },
    {
      "inputs": [],
      "name": "totalSupply",
      "outputs": [
        {
          "internalType": "uint256",
          "name": "",
          "type": "uint256"
        }
      ],
      "stateMutability": "view",
      "type": "function"
    },
    {
      "inputs": [
        {
          "internalType": "address",
          "name": "from",
          "type": "address"
        },
        {
          "internalType": "address",
          "name": "to",
          "type": "address"
        },
        {
          "internalType": "uint256",
          "name": "tokenId",
          "type": "uint256"
        }
      ],
      "name": "transferFrom",
      "outputs": [],
      "stateMutability": "nonpayable",
      "type": "function"
    },
    {
      "inputs": [
        {
          "internalType": "address",
          "name": "newOwner",
          "type": "address"
        }
      ],
      "name": "transferOwnership",
      "outputs": [],
      "stateMutability": "nonpayable",
      "type": "function"
    },
    {
      "inputs": [
        {
          "internalType": "uint256",
          "name": "_avatarId",
          "type": "uint256"
        },
        {
          "internalType": "string",
          "name": "_newName",
          "type": "string"
        }
      ],
      "name": "updateAvatarName",
      "outputs": [],
      "stateMutability": "nonpayable",
      "type": "function"
    },
    {
      "inputs": [],
      "name": "utils",
      "outputs": [
        {
          "internalType": "contract WeNadsUtils",
          "name": "",
          "type": "address"
        }
      ],
      "stateMutability": "view",
      "type": "function"
    }
  ],
  "bytecode": "0x6080604052346103d657613b726040813803918261001c816103db565b9384928339810103126103d65761003e602061003783610400565b9201610400565b61004860406103db565b91600683526557654e61647360d01b602084015261006660406103db565b600681526557454e41445360d01b602082015283519092906001600160401b0381116102e157600054600181811c911680156103cc575b60208210146102c157601f8111610368575b50602094601f8211600114610302579481929394956000926102f7575b50508160011b916000199060031b1c1916176000555b82516001600160401b0381116102e157600154600181811c911680156102d7575b60208210146102c157601f811161025c575b506020601f82116001146101f557819293946000926101ea575b50508160011b916000199060031b1c1916176001555b33156101d457600a8054336001600160a01b0319821681179092556040519391906001600160a01b03167f8be0079c531659141344cd1fd0a4f28419497f9722a3daafe3b4186f6b6457e0600080a36001600e55600b80546001600160a01b039283166001600160a01b031991821617909155600c805493909216921691909117905561375d90816104158239f35b631e4fbdf760e01b600052600060045260246000fd5b01519050388061012f565b601f198216906001600052806000209160005b8181106102445750958360019596971061022b575b505050811b01600155610145565b015160001960f88460031b161c1916905538808061021d565b9192602060018192868b015181550194019201610208565b60016000527fb10e2d527612073b26eecdfd717e6a320cf44b4afac2b0732d9fcbe2b7fa0cf6601f830160051c810191602084106102b7575b601f0160051c01905b8181106102ab5750610115565b6000815560010161029e565b9091508190610295565b634e487b7160e01b600052602260045260246000fd5b90607f1690610103565b634e487b7160e01b600052604160045260246000fd5b0151905038806100cc565b601f1982169560008052806000209160005b88811061035057508360019596979810610337575b505050811b016000556100e2565b015160001960f88460031b161c19169055388080610329565b91926020600181928685015181550194019201610314565b600080527f290decd9548b62a8d60345a988386fc84ba6bc95484008f6362f93160ef3e563601f830160051c810191602084106103c2575b601f0160051c01905b8181106103b657506100af565b600081556001016103a9565b90915081906103a0565b90607f169061009d565b600080fd5b6040519190601f01601f191682016001600160401b038111838210176102e157604052565b51906001600160a01b03821682036103d65756fe608080604052600436101561001357600080fd5b60003560e01c90816301ffc9a714612a725750806306fdde03146129cd578063081812fc1461298f578063095ea7b3146128a05780631328ec9b146127b257806318160ddd14612794578063195c61bd1461276b5780631cfa5f9e14611e2857806323b872dd14611e115780632f745c5914611d995780633aaf5d1d146111a357806342842e0e1461117957806342966c6814610f325780634f6ccce714610ee15780635a29638d14610eb85780636352211e14610e88578063658156d9146108f757806370a08231146108cc578063715018a61461086f5780638da5cb5b1461084657806395d89b4114610779578063a22cb465146106d8578063b88d4fde14610688578063bc197c81146105f3578063c87b56dd14610492578063e985e9c514610437578063f23a6e61146103e2578063f2fde38b146103585763fa91411f1461015e57600080fd5b34610353576040366003190112610353576004356024356001600160401b03811161035357610191903690600401612bdc565b908060005260026020526101bc6101b78260018060a01b0360406000205416339061366f565b6131d6565b80600052600d6020526005604060002001918051926001600160401b03841161033d576101e98154612ccf565b601f81116102f5575b50602093601f811160011461026b57908161025b93927f850ae9d6b51843556b6ff9ccf8bab78e9a10878794034da07875e8f1490e78be9596600091610260575b508160011b916000199060031b1c19161790555b604051918291602083526020830190612b34565b0390a2005b905083015138610233565b601f19811682600052856000209060005b8181106102dd5750916001917f850ae9d6b51843556b6ff9ccf8bab78e9a10878794034da07875e8f1490e78be96978261025b979695106102c4575b5050811b019055610247565b85015160001960f88460031b161c1916905538806102b8565b8588015183556020978801976001909301920161027c565b816000526020600020601f860160051c81019160208710610333575b601f0160051c01905b81811061032757506101f2565b6000815560010161031a565b9091508190610311565b634e487b7160e01b600052604160045260246000fd5b600080fd5b3461035357602036600319011261035357610371612b59565b6103796136fe565b6001600160a01b031680156103cc57600a80546001600160a01b0319811683179091556001600160a01b03167f8be0079c531659141344cd1fd0a4f28419497f9722a3daafe3b4186f6b6457e0600080a3005b631e4fbdf760e01b600052600060045260246000fd5b346103535760a0366003190112610353576103fb612b59565b50610404612b6f565b506084356001600160401b03811161035357610424903690600401612bdc565b5060405163f23a6e6160e01b8152602090f35b3461035357604036600319011261035357610450612b59565b610458612b6f565b9060018060a01b0316600052600560205260406000209060018060a01b0316600052602052602060ff604060002054166040519015158152f35b34610353576020366003190112610353576004356104af816133ab565b50600052600d60205260406000206000815460018301549061055160028501549460038101549260048201546104f36005604051946104ed86612b85565b01612d09565b83526020830191825260408301958652606083019788526080830194855260a0830190815260018060a01b03600c541694604051988997889687966345a663cb60e11b8852602060048901525160c0602489015260e4880190612b34565b945160448701525160648601525160848501525160a48401525160c483015203915afa80156105e75760009061059e575b61059a90604051918291602083526020830190612b34565b0390f35b3d8082843e6105ad8184612ba0565b8201916020818403126105e3578051916001600160401b0383116105e05750916105db9161059a9301612dad565b610582565b80fd5b5080fd5b6040513d6000823e3d90fd5b346103535760a03660031901126103535761060c612b59565b50610615612b6f565b506044356001600160401b03811161035357610635903690600401612c72565b506064356001600160401b03811161035357610655903690600401612c72565b506084356001600160401b03811161035357610675903690600401612bdc565b5060405163bc197c8160e01b8152602090f35b34610353576080366003190112610353576106a1612b59565b6106a9612b6f565b606435916001600160401b038311610353576106cc6106d6933690600401612bdc565b9160443591613264565b005b34610353576040366003190112610353576106f1612b59565b60243590811515809203610353576001600160a01b031690811561076457336000526005602052604060002082600052602052604060002060ff1981541660ff83161790556040519081527f17307eab39ab6107e8899845ad3d59bd9653f200f220920489ca2b5937696c3160203392a3005b50630b61174360e31b60005260045260246000fd5b3461035357600036600319011261035357604051600060015461079b81612ccf565b808452906001811690811561082257506001146107c3575b61059a8361024781850382612ba0565b600160009081527fb10e2d527612073b26eecdfd717e6a320cf44b4afac2b0732d9fcbe2b7fa0cf6939250905b808210610808575090915081016020016102476107b3565b9192600181602092548385880101520191019092916107f0565b60ff191660208086019190915291151560051b8401909101915061024790506107b3565b3461035357600036600319011261035357600a546040516001600160a01b039091168152602090f35b34610353576000366003190112610353576108886136fe565b600a80546001600160a01b031981169091556000906001600160a01b03167f8be0079c531659141344cd1fd0a4f28419497f9722a3daafe3b4186f6b6457e08280a3005b346103535760203660031901126103535760206108ef6108ea612b59565b61322e565b604051908152f35b346103535760603660031901126103535760243560443560043560058210156103535780600052600260205261093f6101b78260018060a01b0360406000205416339061366f565b600b54604051627eeac760e11b8152336004820152602481018590526001600160a01b039091169290602081604481875afa9081156105e757600091610e56575b5015610e1c5760405163042ab9b360e01b81526004810185905291602083602481875afa9283156105e757600093610de8575b5060405192631a57167d60e01b84526004840152602083602481875afa9283156105e757600093610da9575b506000926005811015610d95578203610d57578252600d60205260409091209080610ac057508091505460018060a01b03600b541690813b156103535760009160648392604051948593849263ab9adecf60e01b845260048401528160248401523360448401525af180156105e757610aaf575b50600b546001600160a01b0316803b15610353576000809160646040518094819363ab9adecf60e01b8352886004840152600160248401523360448401525af180156105e757610aa1575055005b6000610aac91612ba0565b55005b6000610aba91612ba0565b82610a53565b600060018203610b6a5750506001915001805460018060a01b03600b541690813b156103535760009160648392604051948593849263ab9adecf60e01b845260048401528160248401523360448401525af180156105e757610aaf5750600b546001600160a01b0316803b15610353576000809160646040518094819363ab9adecf60e01b8352886004840152600160248401523360448401525af180156105e757610aa1575055005b5060028103610c1257506002915001805460018060a01b03600b541690813b156103535760009160648392604051948593849263ab9adecf60e01b845260048401528160248401523360448401525af180156105e757610aaf5750600b546001600160a01b0316803b15610353576000809160646040518094819363ab9adecf60e01b8352886004840152600160248401523360448401525af180156105e757610aa1575055005b600060038203610cbc5750506003915001805460018060a01b03600b541690813b156103535760009160648392604051948593849263ab9adecf60e01b845260048401528160248401523360448401525af180156105e757610aaf5750600b546001600160a01b0316803b15610353576000809160646040518094819363ab9adecf60e01b8352886004840152600160248401523360448401525af180156105e757610aa1575055005b50600414610cc657005b600401908154813b156103535760009160648392604051948593849263ab9adecf60e01b845260048401528160248401523360448401525af180156105e757610aaf5750600b546001600160a01b0316803b15610353576000809160646040518094819363ab9adecf60e01b8352886004840152600160248401523360448401525af180156105e757610aa1575055005b60405162461bcd60e51b8152602060048201526016602482015275496e76616c696420636f6d706f6e656e74207479706560501b6044820152606490fd5b634e487b7160e01b84526021600452602484fd5b6020939193813d602011610de0575b81610dc560209383612ba0565b810103126105e357519060058210156105e0575091856109df565b3d9150610db8565b9092506020813d602011610e14575b81610e0460209383612ba0565b81010312610353575191856109b3565b3d9150610df7565b60405162461bcd60e51b8152602060048201526012602482015271135d5cdd081bdddb8818dbdb5c1bdb995b9d60721b6044820152606490fd5b90506020813d602011610e80575b81610e7160209383612ba0565b81010312610353575185610980565b3d9150610e64565b34610353576020366003190112610353576020610ea66004356133ab565b6040516001600160a01b039091168152f35b3461035357600036600319011261035357600c546040516001600160a01b039091168152602090f35b3461035357602036600319011261035357600435600854811015610f1957610f0a602091613213565b90549060031b1c604051908152f35b63295f44f760e21b600052600060045260245260446000fd5b3461035357602036600319011261035357600435806000526002602052610f6b6101b78260018060a01b0360406000205416339061366f565b80600052600d60205260406000209080600052600260205260018060a01b036040600020541660018060a01b03600b54168354813b156103535760009160648392604051948593849263ab9adecf60e01b845260048401528160248401528760448401525af180156105e757611168575b5060018060a01b03600b54166001840154813b156103535760009160648392604051948593849263ab9adecf60e01b845260048401528160248401528760448401525af180156105e757611157575b5060018060a01b03600b54166002840154813b156103535760009160648392604051948593849263ab9adecf60e01b845260048401528160248401528760448401525af180156105e757611146575b5060018060a01b03600b54166003840154813b156103535760009160648392604051948593849263ab9adecf60e01b845260048401528160248401528760448401525af180156105e757611135575b50600460018060a01b03600b541693015490833b1561035357606460009283604051968794859363ab9adecf60e01b8552600485015282602485015260448401525af19182156105e7576106d692611124575b5033906133e2565b600061112f91612ba0565b8261111c565b600061114091612ba0565b836110c9565b600061115191612ba0565b8361107a565b600061116291612ba0565b8361102b565b600061117391612ba0565b83610fdc565b34610353576106d661118a36612c21565b906040519261119a602085612ba0565b60008452613264565b346103535760c036600319011261035357600435602435906044356064356084359160a435948460005260026020526111ee6101b78660018060a01b0360406000205416339061366f565b80611b55575b508061190b575b50806116c1575b5080611477575b508161121157005b60009080825260026020526112366101b7823360018060a01b0360408720541661366f565b600b54604051627eeac760e11b8152336004820152602481018590526001600160a01b039091169290602081604481875afa9081156113af578291611445575b5015610e1c5760405163042ab9b360e01b81526004810185905290602082602481875afa918215611392578192611411575b5060405191631a57167d60e01b83526004830152602082602481875afa9182156113925781926113d4575b505060058110156113be57600403610d5757600052600d6020526040600020600460009101918254813b156113ba57829160648392604051948593849263ab9adecf60e01b845260048401528160248401523360448401525af180156113af57829061139f575b5050600b546001600160a01b0316803b156105e35781809160646040518095819363ab9adecf60e01b8352896004840152600160248401523360448401525af180156113925761138957505055005b610aac91612ba0565b50604051903d90823e3d90fd5b6113a891612ba0565b838161133a565b6040513d84823e3d90fd5b8280fd5b634e487b7160e01b600052602160045260246000fd5b9091506020813d602011611409575b816113f060209383612ba0565b810103126105e3575160058110156105e35790856112d3565b3d91506113e3565b9091506020813d60201161143d575b8161142d60209383612ba0565b810103126105e3575190856112a8565b3d9150611420565b90506020813d60201161146f575b8161146060209383612ba0565b810103126105e3575185611276565b3d9150611453565b6000828152600260205261149b6101b7843360018060a01b0360408620541661366f565b600b54604051627eeac760e11b8152336004820152602481018490526001600160a01b039091169190602081604481865afa9081156113af57829161168f575b5015610e1c5760405163042ab9b360e01b815260048101849052602081602481865afa80156113af57829061165c575b60209150602460405180958193631a57167d60e01b835260048301525afa91821561139257819261161f575b505060058110156113be57600303610d57576000828152600d602052604081206003018054600b549192916001600160a01b031690813b156113ba57829160648392604051948593849263ab9adecf60e01b845260048401528160248401523360448401525af180156113af57829061160f575b5050600b546001600160a01b0316803b156105e35781809160646040518095819363ab9adecf60e01b8352896004840152600160248401523360448401525af18015611392576115ff575b50505582611209565b61160891612ba0565b84806115f6565b61161891612ba0565b85816115ab565b9091506020813d602011611654575b8161163b60209383612ba0565b810103126105e3575160058110156105e3579085611537565b3d915061162e565b506020813d602011611687575b8161167660209383612ba0565b810103126105e3576020905161150b565b3d9150611669565b90506020813d6020116116b9575b816116aa60209383612ba0565b810103126105e35751866114db565b3d915061169d565b600083815260026020526116e56101b7853360018060a01b0360408620541661366f565b600b54604051627eeac760e11b8152336004820152602481018490526001600160a01b039091169190602081604481865afa9081156113af5782916118d9575b5015610e1c5760405163042ab9b360e01b815260048101849052602081602481865afa80156113af5782906118a6575b60209150602460405180958193631a57167d60e01b835260048301525afa918215611392578192611869575b505060058110156113be57600203610d57576000838152600d602052604081206002018054600b549192916001600160a01b031690813b156113ba57829160648392604051948593849263ab9adecf60e01b845260048401528160248401523360448401525af180156113af578290611859575b5050600b546001600160a01b0316803b156105e35781809160646040518095819363ab9adecf60e01b8352896004840152600160248401523360448401525af1801561139257611849575b50505583611202565b61185291612ba0565b8580611840565b61186291612ba0565b86816117f5565b9091506020813d60201161189e575b8161188560209383612ba0565b810103126105e3575160058110156105e3579086611781565b3d9150611878565b506020813d6020116118d1575b816118c060209383612ba0565b810103126105e35760209051611755565b3d91506118b3565b90506020813d602011611903575b816118f460209383612ba0565b810103126105e3575187611725565b3d91506118e7565b6000848152600260205261192f6101b7863360018060a01b0360408620541661366f565b600b54604051627eeac760e11b8152336004820152602481018490526001600160a01b039091169190602081604481865afa9081156113af578291611b23575b5015610e1c5760405163042ab9b360e01b815260048101849052602081602481865afa80156113af578290611af0575b60209150602460405180958193631a57167d60e01b835260048301525afa918215611392578192611ab3575b505060058110156113be57600103610d57576000848152600d602052604081206001018054600b549192916001600160a01b031690813b156113ba57829160648392604051948593849263ab9adecf60e01b845260048401528160248401523360448401525af180156113af578290611aa3575b5050600b546001600160a01b0316803b156105e35781809160646040518095819363ab9adecf60e01b8352896004840152600160248401523360448401525af1801561139257611a93575b505055846111fb565b611a9c91612ba0565b8680611a8a565b611aac91612ba0565b8781611a3f565b9091506020813d602011611ae8575b81611acf60209383612ba0565b810103126105e3575160058110156105e35790876119cb565b3d9150611ac2565b506020813d602011611b1b575b81611b0a60209383612ba0565b810103126105e3576020905161199f565b3d9150611afd565b90506020813d602011611b4d575b81611b3e60209383612ba0565b810103126105e357518861196f565b3d9150611b31565b60008581526002602052611b796101b7873360018060a01b0360408620541661366f565b600b54604051627eeac760e11b8152336004820152602481018490526001600160a01b039091169190602081604481865afa9081156113af578291611d67575b5015610e1c5760405163042ab9b360e01b815260048101849052602081602481865afa80156113af578290611d34575b60209150602460405180958193631a57167d60e01b835260048301525afa918215611392578192611cf7575b505060058110156113be57610d57576000858152600d602052604081208054600b549192916001600160a01b031690813b156113ba57829160648392604051948593849263ab9adecf60e01b845260048401528160248401523360448401525af180156113af578290611ce7575b5050600b546001600160a01b0316803b156105e35781809160646040518095819363ab9adecf60e01b8352896004840152600160248401523360448401525af1801561139257611cd7575b505055856111f4565b611ce091612ba0565b8780611cce565b611cf091612ba0565b8881611c83565b9091506020813d602011611d2c575b81611d1360209383612ba0565b810103126105e3575160058110156105e3579088611c15565b3d9150611d06565b506020813d602011611d5f575b81611d4e60209383612ba0565b810103126105e35760209051611be9565b3d9150611d41565b90506020813d602011611d91575b81611d8260209383612ba0565b810103126105e3575189611bb9565b3d9150611d75565b3461035357604036600319011261035357611db2612b59565b60243590611dbf8161322e565b821015611df25760018060a01b031660005260066020526040600020906000526020526020604060002054604051908152f35b63295f44f760e21b60005260018060a01b031660045260245260446000fd5b34610353576106d6611e2236612c21565b91612f4b565b60c03660031901126103535760243560443560843560643560043560a4356001600160401b03811161035357611e62903690600401612bdc565b92611e6c3361322e565b61275a57600b54604051630c550f3d60e21b8152600481018490526001600160a01b039091169390600081602481885afa9081156105e75760009161273f575b50604051630c550f3d60e21b81526004810189905290600082602481895afa9182156105e757600092612722575b50604051630c550f3d60e21b8152600481018990526000816024818a5afa9081156105e757600091612707575b50604051630c550f3d60e21b815260048101859052906000826024818b5afa9182156105e7576000926126ea575b50604051630c550f3d60e21b815260048101879052936000856024818c5afa9384156105e757611f8f956000956126a7575b50611f86611f86936080611f8681979582808097015191015190612edb565b91015190612edb565b9586341061266b579086979394929160405194611fad60c087612ba0565b60058652602086019660a0368937611fc487612ee8565b52611fce86612f0b565b52611fd885612f1b565b52611fe284612f2b565b52611fec83612f3b565b52604051958692637861c9ad60e11b84526044840190604060048601525180915260648401949060005b81811061264f5750505082908160009533602483015203925af19283156105e7576000936125b8575b50600e549060001982146123835760018201600e55600561205f85612ee8565b5161206986612f0b565b5161207387612f1b565b5161207d88612f2b565b519061208889612f3b565b51926040519461209786612b85565b85526020850190815260408501918252606085019283526080850193845260a0850196875287600052600d6020526040600020945185555160018501555160028401555160038301555160048201550190518051906001600160401b03821161033d5781906121068454612ccf565b601f8111612565575b50602090601f8311600114612500576000926124f5575b50508160011b916000199060031b1c19161790555b33156124df576000818152600260205260408120546001600160a01b03161515806124d7575b6124c857818152600260205260408120546001600160a01b031680158015929083612493575b33808352600360209081526040808520805460010190558785526002909152832080546001600160a01b031916821790558590847fddf252ad1be2c89b69c2b068fc378daa952ba7f163c4a11628f55a4df523b3ef8580a415612416576008548482526009602052806040832055600160401b811015612402578461221582600161222e9401600855613213565b90919082549060031b91821b91600019901b1916179055565b3382036123af575b5050612399577f39a410f0c70f1c2935df6f694f9730b34eae35a9449c685d4032c584affe4aa160a061226885612ee8565b5161227286612f0b565b5161227c87612f1b565b5161228688612f2b565b519061229189612f3b565b51926040519485526020850152604084015260608301526080820152a260005b825181101561234b5760018060a01b03600b54169060008451821015612337575060208160051b85010151823b156103535760009260648492604051958693849263ab9adecf60e01b84526004840152600160248401523360448401525af19182156105e757600192612326575b50016122b1565b600061233191612ba0565b8461231f565b634e487b7160e01b81526032600452602490fd5b5080341161235557005b8034039034821161238357600080809381938290341461237a575b3390f1156105e757005b506108fc612370565b634e487b7160e01b600052601160045260246000fd5b6339e3563760e11b600052600060045260246000fd5b6123b83361322e565b6000198101919082116123ee57604090338152600660205281812083825260205285828220558581526007602052205585612236565b634e487b7160e01b81526011600452602490fd5b634e487b7160e01b82526041600452602482fd5b33821461222e576124268261322e565b848252600760205260408220549083835260066020526040832091818103612468575b508583526007602052826040812055825260205280604081205561222e565b8184528260205260408420548185528360205280604086205584526007602052604084205588612449565b600085815260046020526040902080546001600160a01b03191690558282526003602052604082208054600019019055612187565b630701eeb960e01b8152600490fd5b506001612161565b633250574960e11b600052600060045260246000fd5b015190508680612126565b60008581528281209350601f198516905b81811061254d5750908460019594939210612534575b505050811b01905561213b565b015160001960f88460031b161c19169055868080612527565b92936020600181928786015181550195019301612511565b909150836000526020600020601f840160051c810191602085106125ae575b90601f859493920160051c01905b81811061259f575061210f565b60008155849350600101612592565b9091508190612584565b9290923d8083833e6125ca8183612ba0565b8101906020818303126113ba578051906001600160401b03821161264b570181601f820112156113ba5780519061260082612c5b565b9361260e6040519586612ba0565b82855260208086019360051b8301019384116105e05750602001905b82821061263b57505050918361203f565b815181526020918201910161262a565b8380fd5b825187526020968701968a965089945090920191600101612016565b60405162461bcd60e51b8152602060048201526014602482015273125b9cdd59999a58da595b9d081c185e5b595b9d60621b6044820152606490fd5b608094928580939750611f86611f86969282806126d9611f86973d806000833e6126d18183612ba0565b810190612df2565b9b9750505095975050509350611f67565b6127009192503d806000833e6126d18183612ba0565b908b611f35565b61271c91503d806000833e6126d18183612ba0565b8a611f07565b6127389192503d806000833e6126d18183612ba0565b9089611eda565b61275491503d806000833e6126d18183612ba0565b88611eac565b631cc76f3360e31b60005260046000fd5b3461035357600036600319011261035357600b546040516001600160a01b039091168152602090f35b34610353576000366003190112610353576020600854604051908152f35b3461035357602036600319011261035357600435606060a06040516127d681612b85565b600081526000602082015260006040820152600083820152600060808201520152612800816133ab565b50600052600d602052604060002060405161281a81612b85565b8154815261059a600183015492602083019384526002810154906040840191825260038101546060850190815261285f60056004840154936080880194855201612d09565b9260a08601938452604051968796602088525160208801525160408701525160608601525160808501525160a08401525160c08084015260e0830190612b34565b34610353576040366003190112610353576128b9612b59565b6024356128c5816133ab565b3315158061297c575b8061294e575b6129395781906001600160a01b0384811691167f8c5be1e5ebec7d5bd14f71427d1e84f3dd0314c0f7b2291e5b200ac8c7c3b925600080a4600090815260046020526040902080546001600160a01b0319166001600160a01b03909216919091179055005b63a9fbf51f60e01b6000523360045260246000fd5b506001600160a01b038116600090815260056020908152604080832033845290915290205460ff16156128d4565b506001600160a01b0381163314156128ce565b34610353576020366003190112610353576004356129ac816133ab565b506000526004602052602060018060a01b0360406000205416604051908152f35b3461035357600036600319011261035357604051600080546129ee81612ccf565b80845290600181169081156108225750600114612a155761059a8361024781850382612ba0565b60008080527f290decd9548b62a8d60345a988386fc84ba6bc95484008f6362f93160ef3e563939250905b808210612a58575090915081016020016102476107b3565b919260018160209254838588010152019101909291612a40565b34610353576020366003190112610353576004359063ffffffff60e01b821680920361035357602091630271189760e51b8114908115612ab4575b5015158152f35b63780e9d6360e01b811491508115612ace575b5083612aad565b6380ac58cd60e01b811491508115612b00575b8115612aef575b5083612ac7565b6301ffc9a760e01b14905083612ae8565b635b5e139f60e01b81149150612ae1565b60005b838110612b245750506000910152565b8181015183820152602001612b14565b90602091612b4d81518092818552858086019101612b11565b601f01601f1916010190565b600435906001600160a01b038216820361035357565b602435906001600160a01b038216820361035357565b60c081019081106001600160401b0382111761033d57604052565b90601f801991011681019081106001600160401b0382111761033d57604052565b6001600160401b03811161033d57601f01601f191660200190565b81601f8201121561035357602081359101612bf682612bc1565b92612c046040519485612ba0565b828452828201116103535781600092602092838601378301015290565b6060906003190112610353576004356001600160a01b038116810361035357906024356001600160a01b0381168103610353579060443590565b6001600160401b03811161033d5760051b60200190565b9080601f83011215610353578135612c8981612c5b565b92612c976040519485612ba0565b81845260208085019260051b82010192831161035357602001905b828210612cbf5750505090565b8135815260209182019101612cb2565b90600182811c92168015612cff575b6020831014612ce957565b634e487b7160e01b600052602260045260246000fd5b91607f1691612cde565b9060405191826000825492612d1d84612ccf565b8084529360018116908115612d8b5750600114612d44575b50612d4292500383612ba0565b565b90506000929192526020600020906000915b818310612d6f575050906020612d429282010138612d35565b6020919350806001915483858901015201910190918492612d56565b905060209250612d4294915060ff191682840152151560051b82010138612d35565b81601f82011215610353578051612dc381612bc1565b92612dd16040519485612ba0565b8184526020828401011161035357612def9160208085019101612b11565b90565b602081830312610353578051906001600160401b038211610353570161010081830312610353576040519161010083018381106001600160401b0382111761033d5760405281516001600160401b0381116103535781612e53918401612dad565b835260208201516001600160a01b038116810361035357602084015260408201516040840152606082015160608401526080820151608084015260a0820151906001600160401b03821161035357612eac918301612dad565b60a083015260c08101519081151582036103535760e09160c0840152015160058110156103535760e082015290565b9190820180921161238357565b805115612ef55760200190565b634e487b7160e01b600052603260045260246000fd5b805160011015612ef55760400190565b805160021015612ef55760600190565b805160031015612ef55760800190565b805160041015612ef55760a00190565b9091906001600160a01b03831680156124df576000838152600260205260408120546001600160a01b03161515806131ce575b6124c857838152600260205260408120546001600160a01b03169433613190575b8515801561315b575b83835260036020526040832060018154019055858352600260205260408320846bffffffffffffffffffffffff60a01b8254161790558584887fddf252ad1be2c89b69c2b068fc378daa952ba7f163c4a11628f55a4df523b3ef8680a4156130de576008548583526009602052806040842055600160401b8110156130ca578561221582600161303b9401600855613213565b828603613075575b5050506001600160a01b031680830361305b57505050565b6364283d7b60e01b60005260045260245260445260646000fd5b61307e9061322e565b6000198101929083116130b6579060409181526006602052818120838252602052848282205584815260076020522055388080613043565b634e487b7160e01b82526011600452602482fd5b634e487b7160e01b83526041600452602483fd5b85831461303b576130ee8661322e565b858352600760205260408320549087845260066020526040842091818103613130575b508684526007602052836040812055835260205281604081205561303b565b8185528260205260408520548186528360205280604087205585526007602052604085205538613111565b600086815260046020526040902080546001600160a01b03191690558683526003602052604083208054600019019055612fa8565b61319b85338861366f565b612f9f578482876131b857602491637e27328960e01b8252600452fd5b60449163177e802f60e01b825233600452602452fd5b506001612f7e565b156131dd57565b60405162461bcd60e51b815260206004820152600e60248201526d139bdd08185d5d1a1bdc9a5e995960921b6044820152606490fd5b600854811015612ef557600860005260206000200190600090565b6001600160a01b0316801561324e57600052600360205260406000205490565b6322718ad960e21b600052600060045260246000fd5b9291613271818386612f4b565b813b61327e575b50505050565b604051630a85bd0160e11b81523360048201526001600160a01b03948516602482015260448101919091526080606482015292169190602090829081906132c9906084830190612b34565b03816000865af18091600091613368575b509061333357503d1561332c573d6132f181612bc1565b906132ff6040519283612ba0565b81523d6000602083013e5b805190816133275782633250574960e11b60005260045260246000fd5b602001fd5b606061330a565b6001600160e01b03191663757a42ff60e11b01613354575038808080613278565b633250574960e11b60005260045260246000fd5b6020813d6020116133a3575b8161338160209383612ba0565b810103126105e35751906001600160e01b0319821682036105e05750386132da565b3d9150613374565b6000818152600260205260409020546001600160a01b03169081156133ce575090565b637e27328960e01b60005260045260246000fd5b6000818152600260205260409020546001600160a01b0316151580613667575b613656576000818152600260205260409020546001600160a01b039081169290811690828261360f575b5050508115801590816135d8575b600083815260026020526040812080546001600160a01b03191690558390857fddf252ad1be2c89b69c2b068fc378daa952ba7f163c4a11628f55a4df523b3ef8280a41561354f575060085481600052600960205280604060002055600160401b81101561033d57816122158260016134b69401600855613213565b6008546000198101908111612383578160005260096020526134dd60406000205491613213565b90549060031b1c6134f18161221584613213565b60005260096020526040600020556000526009602052600060408120556008548015613539576000190161352481613213565b8154906000199060031b1b1916905560085590565b634e487b7160e01b600052603160045260246000fd5b156134b65761355d8261322e565b816000526007602052604060002054908360005260066020526040600020918181036135a7575b5082600052600760205260006040812055600052602052600060408120556134b6565b8160005282602052604060002054816000528360205280604060002055600052600760205260406000205538613584565b600083815260046020526040902080546001600160a01b03191690558360005260036020526040600020600019815401905561343a565b613619918561366f565b1561362557808261342c565b8261363f5750637e27328960e01b60005260045260246000fd5b63177e802f60e01b60005260045260245260446000fd5b630701eeb960e01b60005260046000fd5b506000613402565b6001600160a01b0390911680151592918361368b575b50505090565b6001600160a01b0316808214935090919083156136d7575b5082156136b5575b5050388080613685565b6000908152600460205260409020546001600160a01b031614905038806136ab565b909250600052600560205260406000208160005260205260ff6040600020541691386136a3565b600a546001600160a01b0316330361371257565b63118cdaa760e01b6000523360045260246000fdfea2646970667358221220ac0090c28f100ad95000cf0341a039b95cef9c92f8c2753756f67090966aa11264736f6c634300081c0033",
  "linkReferences": {},
  "deployedLinkReferences": {}
}