{
  "_format": "hh-sol-artifact-1",
  "contractName": "WeNadsComponent",
  "sourceName": "contracts/WeNadsComponent.sol",
  "abi": [
    {
      "inputs": [],
      "stateMutability": "nonpayable",
      "type": "constructor"
    },
    {
      "inputs": [
        {
          "internalType": "address",
          "name": "sender",
          "type": "address"
        },
        {
          "internalType": "uint256",
          "name": "balance",
          "type": "uint256"
        },
        {
          "internalType": "uint256",
          "name": "needed",
          "type": "uint256"
        },
        {
          "internalType": "uint256",
          "name": "tokenId",
          "type": "uint256"
        }
      ],
      "name": "ERC1155InsufficientBalance",
      "type": "error"
    },
    {
      "inputs": [
        {
          "internalType": "address",
          "name": "approver",
          "type": "address"
        }
      ],
      "name": "ERC1155InvalidApprover",
      "type": "error"
    },
    {
      "inputs": [
        {
          "internalType": "uint256",
          "name": "idsLength",
          "type": "uint256"
        },
        {
          "internalType": "uint256",
          "name": "valuesLength",
          "type": "uint256"
        }
      ],
      "name": "ERC1155InvalidArrayLength",
      "type": "error"
    },
    {
      "inputs": [
        {
          "internalType": "address",
          "name": "operator",
          "type": "address"
        }
      ],
      "name": "ERC1155InvalidOperator",
      "type": "error"
    },
    {
      "inputs": [
        {
          "internalType": "address",
          "name": "receiver",
          "type": "address"
        }
      ],
      "name": "ERC1155InvalidReceiver",
      "type": "error"
    },
    {
      "inputs": [
        {
          "internalType": "address",
          "name": "sender",
          "type": "address"
        }
      ],
      "name": "ERC1155InvalidSender",
      "type": "error"
    },
    {
      "inputs": [
        {
          "internalType": "address",
          "name": "operator",
          "type": "address"
        },
        {
          "internalType": "address",
          "name": "owner",
          "type": "address"
        }
      ],
      "name": "ERC1155MissingApprovalForAll",
      "type": "error"
    },
    {
      "inputs": [
        {
          "internalType": "address",
          "name": "owner",
          "type": "address"
        }
      ],
      "name": "OwnableInvalidOwner",
      "type": "error"
    },
    {
      "inputs": [
        {
          "internalType": "address",
          "name": "account",
          "type": "address"
        }
      ],
      "name": "OwnableUnauthorizedAccount",
      "type": "error"
    },
    {
      "inputs": [
        {
          "internalType": "uint256",
          "name": "value",
          "type": "uint256"
        },
        {
          "internalType": "uint256",
          "name": "length",
          "type": "uint256"
        }
      ],
      "name": "StringsInsufficientHexLength",
      "type": "error"
    },
    {
      "anonymous": false,
      "inputs": [
        {
          "indexed": true,
          "internalType": "address",
          "name": "account",
          "type": "address"
        },
        {
          "indexed": true,
          "internalType": "address",
          "name": "operator",
          "type": "address"
        },
        {
          "indexed": false,
          "internalType": "bool",
          "name": "approved",
          "type": "bool"
        }
      ],
      "name": "ApprovalForAll",
      "type": "event"
    },
    {
      "anonymous": false,
      "inputs": [
        {
          "indexed": true,
          "internalType": "address",
          "name": "previousOwner",
          "type": "address"
        },
        {
          "indexed": true,
          "internalType": "address",
          "name": "newOwner",
          "type": "address"
        }
      ],
      "name": "OwnershipTransferred",
      "type": "event"
    },
    {
      "anonymous": false,
      "inputs": [
        {
          "indexed": true,
          "internalType": "uint256",
          "name": "templateId",
          "type": "uint256"
        },
        {
          "indexed": true,
          "internalType": "address",
          "name": "creator",
          "type": "address"
        },
        {
          "indexed": true,
          "internalType": "enum WeNadsComponent.ComponentType",
          "name": "componentType",
          "type": "uint8"
        }
      ],
      "name": "TemplateCreated",
      "type": "event"
    },
    {
      "anonymous": false,
      "inputs": [
        {
          "indexed": true,
          "internalType": "uint256",
          "name": "templateId",
          "type": "uint256"
        },
        {
          "indexed": true,
          "internalType": "address",
          "name": "minter",
          "type": "address"
        }
      ],
      "name": "TemplateMinted",
      "type": "event"
    },
    {
      "anonymous": false,
      "inputs": [
        {
          "indexed": true,
          "internalType": "uint256",
          "name": "templateId",
          "type": "uint256"
        },
        {
          "indexed": false,
          "internalType": "uint256",
          "name": "newPrice",
          "type": "uint256"
        }
      ],
      "name": "TemplatePriceUpdated",
      "type": "event"
    },
    {
      "anonymous": false,
      "inputs": [
        {
          "indexed": true,
          "internalType": "uint256",
          "name": "templateId",
          "type": "uint256"
        },
        {
          "indexed": false,
          "internalType": "bool",
          "name": "isActive",
          "type": "bool"
        }
      ],
      "name": "TemplateStatusUpdated",
      "type": "event"
    },
    {
      "anonymous": false,
      "inputs": [
        {
          "indexed": true,
          "internalType": "uint256",
          "name": "tokenId",
          "type": "uint256"
        },
        {
          "indexed": true,
          "internalType": "uint256",
          "name": "templateId",
          "type": "uint256"
        },
        {
          "indexed": true,
          "internalType": "address",
          "name": "minter",
          "type": "address"
        }
      ],
      "name": "TokenMinted",
      "type": "event"
    },
    {
      "anonymous": false,
      "inputs": [
        {
          "indexed": true,
          "internalType": "address",
          "name": "operator",
          "type": "address"
        },
        {
          "indexed": true,
          "internalType": "address",
          "name": "from",
          "type": "address"
        },
        {
          "indexed": true,
          "internalType": "address",
          "name": "to",
          "type": "address"
        },
        {
          "indexed": false,
          "internalType": "uint256[]",
          "name": "ids",
          "type": "uint256[]"
        },
        {
          "indexed": false,
          "internalType": "uint256[]",
          "name": "values",
          "type": "uint256[]"
        }
      ],
      "name": "TransferBatch",
      "type": "event"
    },
    {
      "anonymous": false,
      "inputs": [
        {
          "indexed": true,
          "internalType": "address",
          "name": "operator",
          "type": "address"
        },
        {
          "indexed": true,
          "internalType": "address",
          "name": "from",
          "type": "address"
        },
        {
          "indexed": true,
          "internalType": "address",
          "name": "to",
          "type": "address"
        },
        {
          "indexed": false,
          "internalType": "uint256",
          "name": "id",
          "type": "uint256"
        },
        {
          "indexed": false,
          "internalType": "uint256",
          "name": "value",
          "type": "uint256"
        }
      ],
      "name": "TransferSingle",
      "type": "event"
    },
    {
      "anonymous": false,
      "inputs": [
        {
          "indexed": false,
          "internalType": "string",
          "name": "value",
          "type": "string"
        },
        {
          "indexed": true,
          "internalType": "uint256",
          "name": "id",
          "type": "uint256"
        }
      ],
      "name": "URI",
      "type": "event"
    },
    {
      "inputs": [
        {
          "internalType": "address",
          "name": "account",
          "type": "address"
        },
        {
          "internalType": "uint256",
          "name": "id",
          "type": "uint256"
        }
      ],
      "name": "balanceOf",
      "outputs": [
        {
          "internalType": "uint256",
          "name": "",
          "type": "uint256"
        }
      ],
      "stateMutability": "view",
      "type": "function"
    },
    {
      "inputs": [
        {
          "internalType": "address[]",
          "name": "accounts",
          "type": "address[]"
        },
        {
          "internalType": "uint256[]",
          "name": "ids",
          "type": "uint256[]"
        }
      ],
      "name": "balanceOfBatch",
      "outputs": [
        {
          "internalType": "uint256[]",
          "name": "",
          "type": "uint256[]"
        }
      ],
      "stateMutability": "view",
      "type": "function"
    },
    {
      "inputs": [
        {
          "internalType": "string",
          "name": "_name",
          "type": "string"
        },
        {
          "internalType": "uint256",
          "name": "_maxSupply",
          "type": "uint256"
        },
        {
          "internalType": "uint256",
          "name": "_price",
          "type": "uint256"
        },
        {
          "internalType": "string",
          "name": "_imageData",
          "type": "string"
        },
        {
          "internalType": "enum WeNadsComponent.ComponentType",
          "name": "_componentType",
          "type": "uint8"
        }
      ],
      "name": "createTemplate",
      "outputs": [
        {
          "internalType": "uint256",
          "name": "",
          "type": "uint256"
        }
      ],
      "stateMutability": "payable",
      "type": "function"
    },
    {
      "inputs": [
        {
          "internalType": "uint256",
          "name": "_templateId",
          "type": "uint256"
        }
      ],
      "name": "getTemplate",
      "outputs": [
        {
          "components": [
            {
              "internalType": "string",
              "name": "name",
              "type": "string"
            },
            {
              "internalType": "address",
              "name": "creator",
              "type": "address"
            },
            {
              "internalType": "uint256",
              "name": "maxSupply",
              "type": "uint256"
            },
            {
              "internalType": "uint256",
              "name": "currentSupply",
              "type": "uint256"
            },
            {
              "internalType": "uint256",
              "name": "price",
              "type": "uint256"
            },
            {
              "internalType": "string",
              "name": "imageData",
              "type": "string"
            },
            {
              "internalType": "bool",
              "name": "isActive",
              "type": "bool"
            },
            {
              "internalType": "enum WeNadsComponent.ComponentType",
              "name": "componentType",
              "type": "uint8"
            }
          ],
          "internalType": "struct WeNadsComponent.Template",
          "name": "",
          "type": "tuple"
        }
      ],
      "stateMutability": "view",
      "type": "function"
    },
    {
      "inputs": [
        {
          "internalType": "uint256",
          "name": "_templateId",
          "type": "uint256"
        }
      ],
      "name": "getTemplateType",
      "outputs": [
        {
          "internalType": "enum WeNadsComponent.ComponentType",
          "name": "",
          "type": "uint8"
        }
      ],
      "stateMutability": "view",
      "type": "function"
    },
    {
      "inputs": [
        {
          "internalType": "uint256[]",
          "name": "_templateIds",
          "type": "uint256[]"
        }
      ],
      "name": "getTemplates",
      "outputs": [
        {
          "components": [
            {
              "internalType": "string",
              "name": "name",
              "type": "string"
            },
            {
              "internalType": "address",
              "name": "creator",
              "type": "address"
            },
            {
              "internalType": "uint256",
              "name": "maxSupply",
              "type": "uint256"
            },
            {
              "internalType": "uint256",
              "name": "currentSupply",
              "type": "uint256"
            },
            {
              "internalType": "uint256",
              "name": "price",
              "type": "uint256"
            },
            {
              "internalType": "string",
              "name": "imageData",
              "type": "string"
            },
            {
              "internalType": "bool",
              "name": "isActive",
              "type": "bool"
            },
            {
              "internalType": "enum WeNadsComponent.ComponentType",
              "name": "componentType",
              "type": "uint8"
            }
          ],
          "internalType": "struct WeNadsComponent.Template[]",
          "name": "",
          "type": "tuple[]"
        }
      ],
      "stateMutability": "view",
      "type": "function"
    },
    {
      "inputs": [
        {
          "internalType": "address",
          "name": "_creator",
          "type": "address"
        }
      ],
      "name": "getTemplatesOfCreator",
      "outputs": [
        {
          "internalType": "uint256[]",
          "name": "",
          "type": "uint256[]"
        }
      ],
      "stateMutability": "view",
      "type": "function"
    },
    {
      "inputs": [
        {
          "internalType": "enum WeNadsComponent.ComponentType",
          "name": "_componentType",
          "type": "uint8"
        }
      ],
      "name": "getTemplatesOfType",
      "outputs": [
        {
          "internalType": "uint256[]",
          "name": "",
          "type": "uint256[]"
        }
      ],
      "stateMutability": "view",
      "type": "function"
    },
    {
      "inputs": [
        {
          "internalType": "uint256",
          "name": "_tokenId",
          "type": "uint256"
        }
      ],
      "name": "getTokenTemplate",
      "outputs": [
        {
          "internalType": "uint256",
          "name": "",
          "type": "uint256"
        }
      ],
      "stateMutability": "view",
      "type": "function"
    },
    {
      "inputs": [
        {
          "internalType": "address",
          "name": "user",
          "type": "address"
        },
        {
          "internalType": "uint256",
          "name": "templateId",
          "type": "uint256"
        }
      ],
      "name": "getUserTemplateToken",
      "outputs": [
        {
          "internalType": "uint256",
          "name": "",
          "type": "uint256"
        }
      ],
      "stateMutability": "view",
      "type": "function"
    },
    {
      "inputs": [
        {
          "internalType": "address",
          "name": "account",
          "type": "address"
        },
        {
          "internalType": "address",
          "name": "operator",
          "type": "address"
        }
      ],
      "name": "isApprovedForAll",
      "outputs": [
        {
          "internalType": "bool",
          "name": "",
          "type": "bool"
        }
      ],
      "stateMutability": "view",
      "type": "function"
    },
    {
      "inputs": [
        {
          "internalType": "uint256",
          "name": "",
          "type": "uint256"
        }
      ],
      "name": "isTokenLocked",
      "outputs": [
        {
          "internalType": "bool",
          "name": "",
          "type": "bool"
        }
      ],
      "stateMutability": "view",
      "type": "function"
    },
    {
      "inputs": [
        {
          "internalType": "uint256",
          "name": "_templateId",
          "type": "uint256"
        },
        {
          "internalType": "address",
          "name": "recipient",
          "type": "address"
        }
      ],
      "name": "mintComponent",
      "outputs": [
        {
          "internalType": "uint256",
          "name": "",
          "type": "uint256"
        }
      ],
      "stateMutability": "payable",
      "type": "function"
    },
    {
      "inputs": [
        {
          "internalType": "uint256[]",
          "name": "_templateIds",
          "type": "uint256[]"
        },
        {
          "internalType": "address",
          "name": "recipient",
          "type": "address"
        }
      ],
      "name": "mintComponents",
      "outputs": [
        {
          "internalType": "uint256[]",
          "name": "",
          "type": "uint256[]"
        }
      ],
      "stateMutability": "payable",
      "type": "function"
    },
    {
      "inputs": [],
      "name": "nextTemplateId",
      "outputs": [
        {
          "internalType": "uint256",
          "name": "",
          "type": "uint256"
        }
      ],
      "stateMutability": "view",
      "type": "function"
    },
    {
      "inputs": [],
      "name": "nextTokenId",
      "outputs": [
        {
          "internalType": "uint256",
          "name": "",
          "type": "uint256"
        }
      ],
      "stateMutability": "view",
      "type": "function"
    },
    {
      "inputs": [],
      "name": "owner",
      "outputs": [
        {
          "internalType": "address",
          "name": "",
          "type": "address"
        }
      ],
      "stateMutability": "view",
      "type": "function"
    },
    {
      "inputs": [],
      "name": "renounceOwnership",
      "outputs": [],
      "stateMutability": "nonpayable",
      "type": "function"
    },
    {
      "inputs": [
        {
          "internalType": "address",
          "name": "from",
          "type": "address"
        },
        {
          "internalType": "address",
          "name": "to",
          "type": "address"
        },
        {
          "internalType": "uint256[]",
          "name": "ids",
          "type": "uint256[]"
        },
        {
          "internalType": "uint256[]",
          "name": "values",
          "type": "uint256[]"
        },
        {
          "internalType": "bytes",
          "name": "data",
          "type": "bytes"
        }
      ],
      "name": "safeBatchTransferFrom",
      "outputs": [],
      "stateMutability": "nonpayable",
      "type": "function"
    },
    {
      "inputs": [
        {
          "internalType": "address",
          "name": "from",
          "type": "address"
        },
        {
          "internalType": "address",
          "name": "to",
          "type": "address"
        },
        {
          "internalType": "uint256",
          "name": "id",
          "type": "uint256"
        },
        {
          "internalType": "uint256",
          "name": "value",
          "type": "uint256"
        },
        {
          "internalType": "bytes",
          "name": "data",
          "type": "bytes"
        }
      ],
      "name": "safeTransferFrom",
      "outputs": [],
      "stateMutability": "nonpayable",
      "type": "function"
    },
    {
      "inputs": [
        {
          "internalType": "address",
          "name": "operator",
          "type": "address"
        },
        {
          "internalType": "bool",
          "name": "approved",
          "type": "bool"
        }
      ],
      "name": "setApprovalForAll",
      "outputs": [],
      "stateMutability": "nonpayable",
      "type": "function"
    },
    {
      "inputs": [
        {
          "internalType": "uint256",
          "name": "_sharePercentage",
          "type": "uint256"
        }
      ],
      "name": "setSharePercentage",
      "outputs": [],
      "stateMutability": "nonpayable",
      "type": "function"
    },
    {
      "inputs": [
        {
          "internalType": "uint256",
          "name": "_newPrice",
          "type": "uint256"
        }
      ],
      "name": "setTemplateCreationPrice",
      "outputs": [],
      "stateMutability": "nonpayable",
      "type": "function"
    },
    {
      "inputs": [
        {
          "internalType": "uint256",
          "name": "tokenId",
          "type": "uint256"
        },
        {
          "internalType": "bool",
          "name": "locked",
          "type": "bool"
        },
        {
          "internalType": "address",
          "name": "tokenOwner",
          "type": "address"
        }
      ],
      "name": "setTokenLockStatus",
      "outputs": [],
      "stateMutability": "nonpayable",
      "type": "function"
    },
    {
      "inputs": [
        {
          "internalType": "address",
          "name": "_weNadsContract",
          "type": "address"
        }
      ],
      "name": "setWeNadsContract",
      "outputs": [],
      "stateMutability": "nonpayable",
      "type": "function"
    },
    {
      "inputs": [],
      "name": "sharePercentage",
      "outputs": [
        {
          "internalType": "uint256",
          "name": "",
          "type": "uint256"
        }
      ],
      "stateMutability": "view",
      "type": "function"
    },
    {
      "inputs": [
        {
          "internalType": "bytes4",
          "name": "interfaceId",
          "type": "bytes4"
        }
      ],
      "name": "supportsInterface",
      "outputs": [
        {
          "internalType": "bool",
          "name": "",
          "type": "bool"
        }
      ],
      "stateMutability": "view",
      "type": "function"
    },
    {
      "inputs": [],
      "name": "templateCreationPrice",
      "outputs": [
        {
          "internalType": "uint256",
          "name": "",
          "type": "uint256"
        }
      ],
      "stateMutability": "view",
      "type": "function"
    },
    {
      "inputs": [
        {
          "internalType": "uint256",
          "name": "_templateId",
          "type": "uint256"
        }
      ],
      "name": "toggleTemplateStatus",
      "outputs": [],
      "stateMutability": "nonpayable",
      "type": "function"
    },
    {
      "inputs": [
        {
          "internalType": "address",
          "name": "newOwner",
          "type": "address"
        }
      ],
      "name": "transferOwnership",
      "outputs": [],
      "stateMutability": "nonpayable",
      "type": "function"
    },
    {
      "inputs": [
        {
          "internalType": "uint256",
          "name": "_templateId",
          "type": "uint256"
        },
        {
          "internalType": "uint256",
          "name": "_newMaxSupply",
          "type": "uint256"
        }
      ],
      "name": "updateTemplateMaxSupply",
      "outputs": [],
      "stateMutability": "nonpayable",
      "type": "function"
    },
    {
      "inputs": [
        {
          "internalType": "uint256",
          "name": "_templateId",
          "type": "uint256"
        },
        {
          "internalType": "string",
          "name": "_newName",
          "type": "string"
        }
      ],
      "name": "updateTemplateName",
      "outputs": [],
      "stateMutability": "nonpayable",
      "type": "function"
    },
    {
      "inputs": [
        {
          "internalType": "uint256",
          "name": "_templateId",
          "type": "uint256"
        },
        {
          "internalType": "uint256",
          "name": "_newPrice",
          "type": "uint256"
        }
      ],
      "name": "updateTemplatePrice",
      "outputs": [],
      "stateMutability": "nonpayable",
      "type": "function"
    },
    {
      "inputs": [
        {
          "internalType": "uint256",
          "name": "_tokenId",
          "type": "uint256"
        }
      ],
      "name": "uri",
      "outputs": [
        {
          "internalType": "string",
          "name": "",
          "type": "string"
        }
      ],
      "stateMutability": "view",
      "type": "function"
    },
    {
      "inputs": [],
      "name": "weNadsContract",
      "outputs": [
        {
          "internalType": "address",
          "name": "",
          "type": "address"
        }
      ],
      "stateMutability": "view",
      "type": "function"
    }
  ],
  "bytecode": "0x60803461017d5760408101906001600160401b038211818310176101675760209160405260108152016f15d95398591cc810dbdb5c1bdb995b9d60821b8152600254600181811c9116801561015d575b602082101461014757601f81116100fd575b50516001600160801b03191660201760025533156100e75760038054336001600160a01b03198216811790925560405191906001600160a01b03167f8be0079c531659141344cd1fd0a4f28419497f9722a3daafe3b4186f6b6457e0600080a360016005556001600655605060075566470de4df820000600b5561330490816101838239f35b631e4fbdf760e01b600052600060045260246000fd5b6002600052601f0160051c7f405787fa12a823e0f2b7631cc41b3ba8828b3321ca811111fa75cd3aa3bb5ace908101905b81811061013b5750610061565b6000815560010161012e565b634e487b7160e01b600052602260045260246000fd5b90607f169061004f565b634e487b7160e01b600052604160045260246000fd5b600080fdfe6080604052600436101561001257600080fd5b60003560e01c8062fdd58e1461024657806301ffc9a714610241578063042ab9b31461023c57806309c3b38c146102375780630e89341c146102325780631a57167d1461022d5780632169b75314610228578063276a28a3146102235780632eb2c2d61461021e5780633011a7231461021957806331543cf41461021457806339cfdcb71461020f5780634e1273f41461020a57806366e9071714610205578063691cfca314610200578063715018a6146101fb57806375794a3c146101f657806379c6c696146101f15780637d18d3e7146101ec5780638da5cb5b146101e7578063a22cb465146101e2578063a47d74ba146101dd578063ab9adecf146101d8578063ac6043bc146101d3578063b3bcb06a146101ce578063c7ccf9a3146101c9578063c7ef9ac2146101c4578063d12edcce146101bf578063d278f883146101ba578063e23b089a146101b5578063e985e9c5146101b0578063ed672e96146101ab578063f0c3935a146101a6578063f242432a146101a15763f2fde38b1461019c57600080fd5b611a7c565b61196d565b61191a565b6118fc565b61189f565b61180a565b61179e565b611780565b6116c0565b611697565b611502565b6114e4565b611403565b611397565b6112e2565b6112aa565b611233565b6110e5565b6110c7565b61106a565b610ffe565b610f0a565b610e57565b610de2565b610c9e565b610b49565b610abd565b61096c565b6108e4565b610886565b610501565b6103fd565b610373565b610305565b6102a6565b600435906001600160a01b038216820361026157565b600080fd5b602435906001600160a01b038216820361026157565b604435906001600160a01b038216820361026157565b35906001600160a01b038216820361026157565b346102615760403660031901126102615760206102ea6102c461024b565b6024356000526000835260406000209060018060a01b0316600052602052604060002090565b54604051908152f35b6001600160e01b031981160361026157565b34610261576020366003190112610261576020600435610324816102f3565b63ffffffff60e01b16636cdb3d1360e11b8114908115610362575b8115610351575b506040519015158152f35b6301ffc9a760e01b14905038610346565b6303a24d0760e21b8114915061033f565b3461026157602036600319011261026157600435806000526008602052604060002054156103c15760005260086020526103bd604060002054604051918291829190602083019252565b0390f35b60405162461bcd60e51b8152602060048201526014602482015273151bdad95b88191bd95cc81b9bdd08195e1a5cdd60621b6044820152606490fd5b34610261576040366003190112610261576004356024359080600052600460205261043960018060a01b03600160406000200154163314611b06565b6000526004602052604060002061045660ff600683015416611b5e565b600381015482106104675760020155005b60405162461bcd60e51b81526020600482015260166024820152754e6577206d617820737570706c7920746f6f206c6f7760501b6044820152606490fd5b60005b8381106104b85750506000910152565b81810151838201526020016104a8565b906020916104e1815180928185528580860191016104a5565b601f01601f1916010190565b9060206104fe9281815201906104c8565b90565b3461026157602036600319011261026157600435610529816000526008602052604060002090565b549061053f826000526004602052604060002090565b60018101546001600160a01b0316929061055a841515611ba3565b600681015461056b60ff8216611b5e565b60081c60ff169161057b836127e2565b93610585906128c7565b9461058e611c04565b93610598906127e2565b916105a2906128c7565b906105ac90612a1f565b9160028401546105bb906128c7565b9360038101546105ca906128c7565b6040516f03d913730b6b2911d112bb2a730b239960851b602082015298899891979160308a016105f991611c3f565b61202360f01b815260020161060d91611c3f565b7f222c20226465736372697074696f6e223a2257654e61647320436f6d706f6e6581527f6e74204e4654222c2022696d616765223a22646174613a696d6167652f706e676020820152670ed8985cd94d8d0b60c21b604082015260480161067391611c3f565b61067f91600501611c90565b7f222c202261747472696275746573223a5b7b2274726169745f74797065223a2281527f436f6d706f6e656e742054797065222c2276616c7565223a220000000000000060208201526039016106d491611c3f565b7f227d2c207b2274726169745f74797065223a2254656d706c617465204944222c815268113b30b63ab2911d1160b91b602082015260290161071591611c3f565b7f227d2c207b2274726169745f74797065223a2243726561746f72222c2276616c8152643ab2911d1160d91b602082015260250161075291611c3f565b7f227d2c207b2274726169745f74797065223a224d617820537570706c79222c228152673b30b63ab2911d1160c11b602082015260280161079291611c3f565b7f227d2c207b2274726169745f74797065223a2243757272656e7420537570706c81526b3c9116113b30b63ab2911d1160a11b6020820152602c016107d691611c3f565b63227d5d7d60e01b815260040103601f19810182526107f590826109b3565b6040517519185d184e985c1c1b1a58d85d1a5bdb8bda9cdbdb8b60521b60208201529081906036820161082791611c3f565b03601f198101825261083990826109b3565b6040516103bd8192826104ed565b6005111561085157565b634e487b7160e01b600052602160045260246000fd5b9060058210156108515752565b6020810192916108849190610867565b565b34610261576020366003190112610261576004358060005260046020526108be60018060a01b03600160406000200154161515611cfe565b60005260046020526103bd60ff60066040600020015460081c1660405191829182610874565b34610261576040366003190112610261576004357f376bd13d5f1bf89f6729a4105f324cf973d7da009f0ad92a3954878a8686b9ac6020602435836000526004825261094160018060a01b03600160406000200154163314611b06565b8360005260048252806004604060002061096160ff600683015416611b5e565b0155604051908152a2005b3461026157602036600319011261026157600435600052600c602052602060ff604060002054166040519015158152f35b634e487b7160e01b600052604160045260246000fd5b90601f801991011681019081106001600160401b038211176109d457604052565b61099d565b60405190610884610100836109b3565b6001600160401b0381116109d45760051b60200190565b9080601f83011215610261578135610a17816109e9565b92610a2560405194856109b3565b81845260208085019260051b82010192831161026157602001905b828210610a4d5750505090565b8135815260209182019101610a40565b6001600160401b0381116109d457601f01601f191660200190565b81601f8201121561026157602081359101610a9282610a5d565b92610aa060405194856109b3565b828452828201116102615781600092602092838601378301015290565b346102615760a036600319011261026157610ad661024b565b610ade610266565b906044356001600160401b03811161026157610afe903690600401610a00565b6064356001600160401b03811161026157610b1d903690600401610a00565b90608435936001600160401b03851161026157610b41610b47953690600401610a78565b93611d4a565b005b3461026157604036600319011261026157610b6261024b565b60243560018060a01b038216600052600e602052604060002090600052602052604060002054908115159081610be9575b5015610ba457604051908152602090f35b60405162461bcd60e51b815260206004820152601f60248201527f5573657220646f6573206e6f74206f776e20746869732074656d706c617465006044820152606490fd5b6000838152602081815260408083206001600160a01b03909416835292905220905054151538610b93565b906104fe9060e080610c76610c34865161010086526101008601906104c8565b60018060a01b03602088015116602086015260408701516040860152606087015160608601526080870151608086015260a087015185820360a08701526104c8565b60c080870151151590850152940151910190610867565b9060206104fe928181520190610c14565b3461026157602036600319011261026157600435610cba611da7565b50600081815260046020526040902060010154610ce1906001600160a01b03161515611cfe565b60005260046020526103bd6040600020610d73610d6a6006610d016109d9565b93610d0b81611df7565b855260018101546001600160a01b03166020860152600281015460408601526003810154606086015260048101546080860152610d4a60058201611df7565b60a08601520154610d6160ff8216151560c0860152565b60081c60ff1690565b60e08301611e99565b60405191829182610c8d565b60043590600582101561026157565b60843590600582101561026157565b906020808351928381520192019060005b818110610dbb5750505090565b8251845260209384019390920191600101610dae565b9060206104fe928181520190610d9d565b3461026157602036600319011261026157610e03610dfe610d7f565b611ed1565b60405190816020825491828152019160005260206000209060005b818110610e41576103bd85610e35818703826109b3565b60405191829182610dd1565b8254845260209093019260019283019201610e1e565b34610261576040366003190112610261576004356001600160401b038111610261573660238201121561026157806004013590610e93826109e9565b91610ea160405193846109b3565b8083526024602084019160051b8301019136831161026157602401905b828210610ef257836024356001600160401b038111610261576103bd91610eec610e35923690600401610a00565b90611f53565b60208091610eff84610292565b815201910190610ebe565b3461026157602036600319011261026157610f2361024b565b610f2b612ac8565b600d54906001600160a01b038216610f59576001600160a01b03166001600160a01b03199190911617600d55005b60405162461bcd60e51b815260206004820152601b60248201527f57654e61647320636f6e747261637420616c72656164792073657400000000006044820152606490fd5b602081016020825282518091526040820191602060408360051b8301019401926000915b838310610fd157505050505090565b9091929394602080610fef600193603f198682030187528951610c14565b97019301930191939290610fc2565b34610261576020366003190112610261576004356001600160401b0381116102615736602382011215610261578060040135906001600160401b038211610261573660248360051b83010111610261576103bd91602461105e9201611ff5565b60405191829182610f9e565b3461026157600036600319011261026157611083612ac8565b600380546001600160a01b031981169091556000906001600160a01b03167f8be0079c531659141344cd1fd0a4f28419497f9722a3daafe3b4186f6b6457e08280a3005b34610261576000366003190112610261576020600654604051908152f35b34610261576040366003190112610261576004356024356001600160401b03811161026157611118903690600401610a78565b9080600052600460205261113d60018060a01b03600160406000200154163314611b06565b80600052600460205261115a60ff60066040600020015416611b5e565b6000526004602052604060002081516001600160401b0381116109d45761118b816111858454611c56565b846120c2565b602092601f82116001146111cc576111bd929382916000926111c1575b50508160011b916000199060031b1c19161790565b9055005b0151905038806111a8565b601f198216936111e184600052602060002090565b9160005b86811061121b5750836001959610611202575b505050811b019055005b015160001960f88460031b161c191690553880806111f8565b919260206001819286850151815501940192016111e5565b34610261576020366003190112610261576001600160a01b0361125461024b565b166000526009602052604060002060405190816020825491828152019160005260206000209060005b818110611294576103bd85610e35818703826109b3565b825484526020909301926001928301920161127d565b34610261576000366003190112610261576003546040516001600160a01b039091168152602090f35b60243590811515820361026157565b34610261576040366003190112610261576112fb61024b565b6113036112d3565b6001600160a01b03821691821561138257816113416113529233600052600160205260406000209060018060a01b0316600052602052604060002090565b9060ff801983541691151516179055565b60405190151581527f17307eab39ab6107e8899845ad3d59bd9653f200f220920489ca2b5937696c3160203392a3005b62ced3e160e81b600052600060045260246000fd5b6040366003190112610261576004356113ae610266565b60408051906113bd90826109b3565b600181526113cb60016109e9565b602082019390601f19013685378151156113fe576113e99352612514565b8051156113fe57602090810151604051908152f35b611f1c565b346102615760603660031901126102615760043561141f6112d3565b61142761027c565b600d546001600160a01b0316330361148b578261147b60016114746113419461145d610b47986000526000602052604060002090565b9060018060a01b0316600052602052604060002090565b54146121d3565b600052600c602052604060002090565b60405162461bcd60e51b815260206004820152602b60248201527f4f6e6c792057654e61647320636f6e74726163742063616e206c6f636b2f756e60448201526a6c6f636b20746f6b656e7360a81b6064820152608490fd5b34610261576000366003190112610261576020600b54604051908152f35b60a0366003190112610261576004356001600160401b0381116102615761152d903690600401610a78565b6024359060443590606435906001600160401b038211610261576115586115e1923690600401610a78565b92611577611564610d8e565b94611572600b54341461221f565b612b12565b906005549561158d61158888612280565b600555565b6115956109d9565b938452336020850152604084015260006060840152608083015260a0820152600160c08201526115c88360e08301611e99565b6115dc846000526004602052604060002090565b6122b3565b336000908152600960205260409020611600908390612412565b612412565b61160d826115fb83611ed1565b600080808061163561162961162960035460018060a01b031690565b6001600160a01b031690565b8190341561168d575b3491f1156116885761164f81610847565b6103bd60405192839233827fff482cc7a8cb243fcc9ec3ef748d90ee082a310b14a9153182cb3403f5c18799600080a482526020820190565b612440565b6108fc915061163e565b3461026157600036600319011261026157600d546040516001600160a01b039091168152602090f35b34610261576020366003190112610261576004358060005260046020526116f860018060a01b03600160406000200154163314611b06565b60008181526004602052604090206001015461171e906001600160a01b03161515611cfe565b6000818152600460205260409020600601805460ff808216151660ff1990911681179091557f0db8d3dd90869fe4390af4326cc7991b04b42d03d884f2808f1d7a2bc51662aa9061177b9060405190151581529081906020820190565b0390a2005b34610261576000366003190112610261576020600554604051908152f35b34610261576020366003190112610261576004356117ba612ac8565b80156117c557600b55005b60405162461bcd60e51b815260206004820152601c60248201527f5072696365206d7573742062652067726561746572207468616e2030000000006044820152606490fd5b3461026157602036600319011261026157600435611826612ac8565b603c81101580611894575b1561183b57600755005b60405162461bcd60e51b815260206004820152602b60248201527f53686172652070657263656e74616765206d757374206265206265747765656e60448201526a020363020616e64203130360ac1b6064820152608490fd5b506064811115611831565b3461026157604036600319011261026157602060ff6118f06118bf61024b565b6118c7610266565b6001600160a01b0391821660009081526001865260408082209290931681526020919091522090565b54166040519015158152f35b34610261576000366003190112610261576020600754604051908152f35b6040366003190112610261576004356001600160401b0381116102615761195961194b6103bd923690600401610a00565b611953610266565b90612514565b604051918291602083526020830190610d9d565b346102615760a03660031901126102615761198661024b565b61198e610266565b60443590606435926084356001600160401b038111610261576119b5903690600401610a78565b926001600160a01b0382163381141580611a58575b611a40576001600160a01b03841615611a2a5715611a1557610b4794611a0d60405192600184526020840152604083019160018352606084015260808301604052565b929091612cfe565b626a0d4560e21b600052600060045260246000fd5b632bfa23e760e11b600052600060045260246000fd5b63711bec9160e11b6000523360045260245260446000fd5b50600081815260016020908152604080832033845290915290205460ff16156119ca565b3461026157602036600319011261026157611a9561024b565b611a9d612ac8565b6001600160a01b03168015611af057600380546001600160a01b0319811683179091556001600160a01b03167f8be0079c531659141344cd1fd0a4f28419497f9722a3daafe3b4186f6b6457e0600080a3005b631e4fbdf760e01b600052600060045260246000fd5b15611b0d57565b60405162461bcd60e51b8152602060048201526024808201527f4f6e6c792063726561746f722063616e20706572666f726d20746869732061636044820152633a34b7b760e11b6064820152608490fd5b15611b6557565b60405162461bcd60e51b815260206004820152601660248201527554656d706c617465206973206e6f742061637469766560501b6044820152606490fd5b15611baa57565b60405162461bcd60e51b815260206004820152601f60248201527f55524920717565727920666f72206e6f6e6578697374656e7420746f6b656e006044820152606490fd5b60405190611bfe6020836109b3565b60008252565b60405190611c136040836109b3565b601882527f6956424f5277304b47676f414141414e535568455567414100000000000000006020830152565b90611c52602092828151948592016104a5565b0190565b90600182811c92168015611c86575b6020831014611c7057565b634e487b7160e01b600052602260045260246000fd5b91607f1691611c65565b60009291815491611ca083611c56565b9260018116908115611ceb5750600114611cb957505050565b909192935060005260206000206000905b838210611cd75750500190565b600181602092548486015201910190611cca565b60ff191683525050811515909102019150565b15611d0557565b60405162461bcd60e51b815260206004820152601760248201527f54656d706c61746520646f6573206e6f742065786973740000000000000000006044820152606490fd5b939291906001600160a01b0385163381141580611d83575b611a40576001600160a01b03821615611a2a5715611a155761088494612cfe565b50600081815260016020908152604080832033845290915290205460ff1615611d62565b6040519061010082018281106001600160401b038211176109d457604052600060e08360608152826020820152826040820152826060820152826080820152606060a08201528260c08201520152565b9060405191826000825492611e0b84611c56565b8084529360018116908115611e775750600114611e30575b50610884925003836109b3565b90506000929192526020600020906000915b818310611e5b5750509060206108849282010138611e23565b6020919350806001915483858901015201910190918492611e42565b90506020925061088494915060ff191682840152151560051b82010138611e23565b60058210156108515752565b90610884604051611eb8610100826109b3565b60e0611eca60068396610d0b81611df7565b9101611e99565b600581101561085157600052600a602052604060002090565b90611ef4826109e9565b611f0160405191826109b3565b8281528092611f12601f19916109e9565b0190602036910137565b634e487b7160e01b600052603260045260246000fd5b8051156113fe5760200190565b80518210156113fe5760209160051b010190565b91909180518351808203611fce575050611f6d8151611eea565b9060005b8151811015611fc75780611fb560019260051b60208082870101519189010151600052600060205260406000209060018060a01b0316600052602052604060002090565b54611fc08286611f3f565b5201611f71565b5090925050565b635b05999160e01b60005260045260245260446000fd5b91908110156113fe5760051b0190565b611ffe826109e9565b9161200c60405193846109b3565b808352601f1961201b826109e9565b0160005b8181106120ab57505060005b8181106120385750505090565b8061207961207261162960016120646120538297898b611fe5565b356000526004602052604060002090565b01546001600160a01b031690565b1515611cfe565b61208f61208a612053838688611fe5565b611ea5565b6120998287611f3f565b526120a48186611f3f565b500161202b565b6020906120b6611da7565b8282880101520161201f565b601f82116120cf57505050565b6000526020600020906020601f840160051c8301931061210a575b601f0160051c01905b8181106120fe575050565b600081556001016120f3565b90915081906120ea565b91909182516001600160401b0381116109d457612135816111858454611c56565b6020601f821160011461216a5781906121669394956000926111c15750508160011b916000199060031b1c19161790565b9055565b601f1982169061217f84600052602060002090565b9160005b8181106121bb575095836001959697106121a2575b505050811b019055565b015160001960f88460031b161c19169055388080612198565b9192602060018192868b015181550194019201612183565b156121da57565b60405162461bcd60e51b815260206004820152601d60248201527f4d757374206f776e20746f6b656e20746f206c6f636b2f756e6c6f636b0000006044820152606490fd5b1561222657565b606460405162461bcd60e51b815260206004820152602060248201527f4d757374207061792074656d706c617465206372656174696f6e2070726963656044820152fd5b634e487b7160e01b600052601160045260246000fd5b600019811461228f5760010190565b61226a565b9060058110156108515761ff0082549160081b169061ff001916179055565b919080519283516001600160401b0381116109d4576122d6816111858454611c56565b6020601f821160011461239c579161230f8260069360e09561088498996000926111c15750508160011b916000199060031b1c19161790565b81555b60208401516001820180546001600160a01b0319166001600160a01b0390921691909117905560408401516002820155606084015160038201556080840151600482015561236760a085015160058301612114565b019161238b61237960c0830151151590565b849060ff801983541691151516179055565b01519061239782610847565b612294565b601f198216956123b184600052602060002090565b9660005b8181106123fa575092610884969760e0959360019383600697106123e1575b505050811b018155612312565b015160001960f88460031b161c191690553880806123d4565b838301518955600190980197602093840193016123b5565b805490680100000000000000008210156109d457600182018082558210156113fe5760005260206000200155565b6040513d6000823e3d90fd5b1561245357565b60405162461bcd60e51b815260206004820152601260248201527113585e081cdd5c1c1b1e481c995858da195960721b6044820152606490fd5b906001820180921161228f57565b9190820180921161228f57565b156124af57565b60405162461bcd60e51b815260206004820152601860248201527f496e636f7272656374207061796d656e7420616d6f756e7400000000000000006044820152606490fd5b8181029291811591840414171561228f57565b9190820391821161228f57565b916000906125228451611eea565b926000925b855184101561258f576125876001916004612556612545888b611f3f565b516000526004602052604060002090565b61256c612567600683015460ff1690565b611b5e565b61257f600382015460028301541161244c565b01549061249b565b930192612527565b61259f91935093919334146124a8565b60005b8451811015612724576125b86125458287611f3f565b906006546125cd6125c882612280565b600655565b6125d78288611f3f565b516125ec826000526008602052604060002090565b55806125f88386611f3f565b526004830161261561260e8254600754906124f4565b6064900490565b60008080808461263461162961162960018d015460018060a01b031690565b82821561271b575bf11561168857600080809361266a829461266361162961162960035460018060a01b031690565b9254612507565b90828215612712575bf115611688576003600193016126898154612280565b905561269d612696611bef565b8287612bf0565b6001600160a01b0385166000908152600e602052604090206126d2906126c3848a611f3f565b51600052602052604060002090565b556126dd8187611f3f565b51828060a01b038516907fd605ef074026357a40eb28fed91d89f780bd58bf736dbb15016c25ba81ff9a67600080a3016125a2565b506108fc612673565b506108fc61263c565b50925050565b604051906127396040836109b3565b600a825269109858dad9dc9bdd5b9960b21b6020830152565b604051906127616040836109b3565b6009825268486169727374796c6560b81b6020830152565b604051906127886040836109b3565b60048252634579657360e01b6020830152565b604051906127aa6040836109b3565b600582526409adeeae8d60db1b6020830152565b604051906127cd6040836109b3565b6006825265233637bbb2b960d11b6020830152565b6127eb81610847565b8015612896576127fa81610847565b6001811461288d5761280b81610847565b600281146128845761281c81610847565b6003811461287b5780612830600492610847565b146128735760405162461bcd60e51b8152602060048201526016602482015275496e76616c696420636f6d706f6e656e74207479706560501b6044820152606490fd5b6104fe6127be565b506104fe61279b565b506104fe612779565b506104fe612752565b506104fe61272a565b906128a982610a5d565b6128b660405191826109b3565b8281528092611f12601f1991610a5d565b8060009172184f03e93ff9f4daa797ed6e38ed64bf6a1f0160401b8210156129fc575b806d04ee2d6d415b85acef8100000000600a9210156129e0575b662386f26fc100008110156129cb575b6305f5e1008110156129b9575b6127108110156129a9575b606481101561299a575b101561298f575b61297a602161294e6001850161289f565b938401015b60001901916f181899199a1a9b1b9c1cb0b131b232b360811b600a82061a8353600a900490565b801561298a5761297a9091612953565b505090565b60019091019061293d565b60029060649004930192612936565b600490612710900493019261292c565b6008906305f5e1009004930192612921565b601090662386f26fc100009004930192612914565b6020906d04ee2d6d415b85acef81000000009004930192612904565b506040915072184f03e93ff9f4daa797ed6e38ed64bf6a1f0160401b81046128ea565b6001600160a01b031680612a33602a61289f565b916030612a3f84611f32565b536078612a4b84612af1565b53612a56602861248d565b60018111612a805750612a67575090565b63e22e27eb60e01b600052600452601460245260446000fd5b90600f811660108110156113fe57612ac391612abd916f181899199a1a9b1b9c1cb0b131b232b360811b901a612ab68588612b01565b5360041c90565b91612cf1565b612a56565b6003546001600160a01b03163303612adc57565b63118cdaa760e01b6000523360045260246000fd5b8051600110156113fe5760210190565b9081518110156113fe570160200190565b90612b1b611c04565b908251825111612bec5760019160005b8151811015612be457612b4f612b418287612b01565b516001600160f81b03191690565b612b6c612b5f612b418486612b01565b6001600160f81b03191690565b6001600160f81b031990911603612b8557600101612b2b565b5090915060005b15612be157612ba6612ba18451835190612507565b61289f565b9060005b8251811015611fc757600190612bcd612b41612bc785518461249b565b88612b01565b60001a612bda8286612b01565b5301612baa565b50565b509091612b8c565b9050565b91906001600160a01b03831615611a2a576001612c2a60405192600184526020840152604083019160018352606084015260808301604052565b90612c61612c5c612c58612c51612c4085611f32565b51600052600c602052604060002090565b5460ff1690565b1590565b612e38565b612c7e612c6d82611f32565b516000526008602052604060002090565b54612cb7612c8b83611f32565b516001600160a01b0387166000908152600e602052604090209092905b90600052602052604060002090565b55612cc58282866000613108565b8051600103612ce557906020806108849593015191015191600033613043565b61088493600033612f0e565b801561228f576000190190565b91939290612d17612c5c612c58612c51612c4089611f32565b6001600160a01b038316612dc7575b6001600160a01b038116151580612d87575b612d4483878487613108565b612d50575b5050505050565b8451600103612d7657602080612d6c9601519201519233613043565b3880808080612d49565b612d8294919233612f0e565b612d6c565b612d93612c6d87611f32565b54612dc1612da088611f32565b516001600160a01b0385166000908152600e60205260409020909290612ca8565b55612d38565b612dd3612c6d86611f32565b546001600160a01b0384166000908152600e60205260409020612df7908290612ca8565b54612e0187611f32565b5114612e0e575b50612d26565b6001600160a01b0384166000908152600e602052604081209091612e3191612ca8565b5538612e08565b15612e3f57565b60405162461bcd60e51b815260206004820152600f60248201526e151bdad95b881a5cc81b1bd8dad959608a1b6044820152606490fd5b9081602091031261026157516104fe816102f3565b6001600160a01b0391821681529116602082015260a0604082018190526104fe9491939192612ed09291612ec29190860190610d9d565b908482036060860152610d9d565b9160808184039101526104c8565b3d15612f09573d90612eef82610a5d565b91612efd60405193846109b3565b82523d6000602084013e565b606090565b9091949293853b612f22575b505050505050565b602093612f4491604051968795869563bc197c8160e01b875260048701612e8b565b038160006001600160a01b0387165af160009181612fd9575b50612f995750612f6b612ede565b8051919082612f9257632bfa23e760e11b6000526001600160a01b03821660045260246000fd5b9050602001fd5b6001600160e01b0319166343e6837f60e01b01612fbc5750388080808080612f1a565b632bfa23e760e11b6000526001600160a01b031660045260246000fd5b612ffc91925060203d602011613003575b612ff481836109b3565b810190612e76565b9038612f5d565b503d612fea565b6001600160a01b039182168152911660208201526040810191909152606081019190915260a0608082018190526104fe929101906104c8565b9091949293853b61305657505050505050565b60209361307891604051968795869563f23a6e6160e01b87526004870161300a565b038160006001600160a01b0387165af1600091816130c2575b5061309f5750612f6b612ede565b6001600160e01b031916630dc5919f60e01b01612fbc5750388080808080612f1a565b6130dc91925060203d60201161300357612ff481836109b3565b9038613091565b90916130fa6104fe93604084526040840190610d9d565b916020818403910152610d9d565b93929180518351908181036132b757505060005b8151811015613211578060051b90602080838501015192860101518460018060a01b03891661318e575b6001936001600160a01b038216613161575b5050500161311c565b6131849161145d61317c926000526000602052604060002090565b91825461249b565b9055388481613158565b5090916131a98861145d836000526000602052604060002090565b548281106131da578291600194938792036131d28b61145d846000526000602052604060002090565b559350613146565b6040516303dee4c560e01b81526001600160a01b038a16600482015260248101919091526044810183905260648101829052608490fd5b508051939493919291600103613274576020908101519181015160408051938452918301526001600160a01b03928316939092169133917fc3d58168c5ae7397731d063d5bbf3d657854427343f4c083240f7aacaa2d0f6291819081015b0390a4565b6040516001600160a01b03938416949093169233927f4a39dc06d4c0dbc64b70af90fd698a233a518aa5d07e595d983b8c0526c8f7fb92829161326f91836130e3565b635b05999160e01b60005260045260245260446000fdfea2646970667358221220feadc27c635e0ae23dcbc36c9c964532a41c27f66f7dd68a74e448c5f99a797964736f6c634300081c0033",
  "linkReferences": {},
  "deployedLinkReferences": {}
}